:020000040800F2
:10000000B80F002035020008CF1C00084B1800086C
:10001000CD1C00082B040008A927000800000000E0
:100020000000000000000000000000003523000870
:100030002D040008000000001123000837230008E9
:100040004F0200084F0200084F0200084F0200084C
:100050004F0200084F0200084F0200084F0200083C
:100060004F0200084F0200084F0200084F0200082C
:100070004F0200084F0200084F0200084F0200081C
:100080004F0200084F0200084F0200080000000065
:100090000000000000000000000000004F02000807
:1000A0004F0200084F020008E12300084F02000839
:1000B0004F0200084F0200084F0200084F020008DC
:1000C0004F0200084F0200084F0200084F020008CC
:1000D0004F020008912700084F02000800000000AE
:1000E0004F0200084F0200084F0200080000000005
:1000F0000000000000000000000000004F020008A7
:10010000000000004F0200084F0200084F020008E4
:1001100000000000000000000000000000000000DF
:100120004F0200084F0200084F0200084F0200086B
:100130004F02000800000000000000000000000066
:100140000000000000000000000000004F02000856
:100150004F0200084F0200084F0200089D270008C8
:100160004F0200084F0200080000000000000000DD
:10017000000000000000000000000000000000007F
:10018000000000004F020008000000000000000016
:100190004F02000800F002F800F03CF80AA090E8D6
:1001A000000C82448344AAF10107DA4501D100F032
:1001B00031F8AFF2090EBAE80F0013F0010F18BFC3
:1001C000FB1A43F001031847584100007841000032
:1001D000103A24BF78C878C1FAD8520724BF30C873
:1001E00030C144BF04680C60704700000023002445
:1001F00000250026103A28BF78C1FBD8520728BF37
:1002000030C148BF0B6070471FB503F06CFB1FBDCA
:1002100010B510BD00F0D4F81146FFF7F5FF02F05D
:100220005FFB00F0F2F803B4FFF7F2FF03BC00F04D
:10023000F5F800000948804709480047FEE7FEE757
:10024000FEE7FEE7FEE7FEE7FEE7FEE7FEE7FEE786
:1002500004480549054A064B70470000D1230008B1
:1002600095010008B8090020B80F0020B80B002045
:10027000B80B002053EA020C00F069802DE9F04B26
:100280004FF00006002B1FBFB3FA83F503FA05F405
:1002900024FA05F65E4012BF1643B2FA82F502FA5E
:1002A00005F4C5F120051EBF22FA05FC44EA0C0442
:1002B000203556EA044C4FEA144418BF641C4FF032
:1002C00000084FF00009904271EB030C39D300296C
:1002D00019BFB1FA81F701FA07F6B0FA80F700FA10
:1002E00007F6C7F120071EBF20FA07FC46EA0C06F6
:1002F0002037B6FBF4FCA7EB0507103F07F01F0BF8
:10030000CBF120060CFA0BFB2CFA06F644BFB346E1
:100310000026202FA4BF5E464FF0000B5BEA060CC0
:1003200008BF4FF0010B19EB0B09ABFB027C48EB4C
:100330000608C01B06FB02CC0BFB03CC71EB0C01C7
:10034000C1E70B46024641464846BDE8F08B13B56F
:100350004FF000004FF00001AFF30080BDE81C40FB
:1003600070474FF0000200B5134694469646203978
:1003700022BFA0E80C50A0E80C50B1F12001BFF45E
:10038000F7AF090728BFA0E80C5048BF0CC05DF8C4
:1003900004EB890028BF40F8042B08BF704748BF12
:1003A00020F8022B11F0804F18BF00F8012B704786
:1003B0007047704770470000004870475809002098
:1003C0007546FFF7F9FFAE4605006946534620F033
:1003D0000700854618B020B5FFF73AFFBDE820407A
:1003E0004FF000064FF000074FF000084FF0000BF1
:1003F00021F00701AC46ACE8C009ACE8C009ACE8A4
:10040000C009ACE8C0098D46704710B50446AFF38B
:1004100000802046BDE81040FFF705BF01491820C5
:10042000ABBEFEE7260002007047FEE7704772B6DB
:10043000FEE72DE9F0410446876D00F061F90646BC
:1004400094F835000025022806D08020606584F8E5
:1004500034500120BDE8F0812068016821F01601C8
:1004600001602068416921F080014161206C08B978
:10047000A06C20B12068016821F0080101602068AB
:10048000016821F0010101600CE000F039F9801BE6
:10049000052807D920206065032084F8350084F8FA
:1004A0003450D7E720680068C007EED194F85C109C
:1004B0003F208840B860012084F8350084F834502B
:1004C0000020C7E790F83510022903D0802141654C
:1004D00001207047052180F835100068016821F07F
:1004E000010101600020704770B5044600F008F972
:1004F0000546601C02D004480078044400F000F96E
:10050000401BA042FAD370BD0C0000202DE9F84F2B
:10051000DFF8B8A10022012403254FF00F090AF1EA
:10052000040BAAF1040E00BF0B6804FA02F6334074
:10053000B34273D10F7907F00307012F01D0022FC7
:1005400016D187684FEA420805FA08FC27EA0C072B
:10055000D1F80CC00CFA08FC4CEA070CC0F808C033
:100560004768B7430E79C6F3001696403E4346608F
:100570000E79F643B6070DD0C768560005FA06FC9B
:1005800027EA0C07D1F808C00CFA06FC4CEA070C65
:10059000C0F80CC00E7906F00306022E10D1D60862
:1005A00000EB8608D8F8206057074FEAD76C09FAA5
:1005B0000CF7BE430F6907FA0CF73743C8F82070F1
:1005C00006684FEA420C05FA0CF7BE430F7907F0B4
:1005D000030707FA0CF7374307604E6816F4403FED
:1005E0006DD03B4E376847F480473760366822F05D
:1005F000030706F480460096364E07EB060CDCF83F
:10060000086897073F0F09FA07F826EA0806DFF897
:10061000C880404503D14FF000081EE04FE0DFF8EE
:10062000BC80404502D14FF0010816E0DFF8B080F1
:10063000404502D14FF002080FE0DFF8A8804045A6
:1006400002D14FF0030808E0DFF89C80404502D15A
:100650004FF0040801E04FF0070808FA07F848EAED
:100660000608CCF80888DAF800605746D1F804C0CC
:100670009E435FEACC2C00D51E433E60DBF8006051
:100680005F46D1F804C09E435FEA8C2C00D51E4320
:100690003E60DEF800607746D1F804C09E435FEA12
:1006A0008C3C00D51E433E60084F083F3E68D1F8A1
:1006B00004C09E435FEACC3C00D51E433E60521C02
:1006C000102AFFF431AFBDE8F88F0000083C01406C
:1006D0004438024000300140000002400004024063
:1006E00000080240000C024000100240006908406F
:1006F00000D0012070470AB1816170470904FBE70F
:1007000001488068704700000C0000207047704767
:100710007047000070B504003DD094F83D000025FE
:10072000E0B984F83C50654860656548A065654857
:10073000E06565482066654860666548A06665486E
:10074000E06665482067654860676548A067E06FB8
:1007500008B96448E067014620468847242084F8A9
:100760003D002068016821F00101016020680168F6
:1007700041F4004101602068016821F400410160FA
:1007800000F0C2FA584A6168914201D8574900E026
:100790005749884201D2012070BD56492368B0FBF9
:1007A000F1F15E6826F03F060E435E606368934297
:1007B00006D94FF4967359434FF47A73B1FBF3F1B2
:1007C0002368491C1E6A26F03F063143196261689E
:1007D000914210D84900401EB0FBF1F2521CC2F306
:1007E0000B02042A01D2042022E0B0FBF1F0401CED
:1007F000C0F30B001CE0A368F3B301EBC10202EBF2
:100800000116421EB2FBF6F2521C42F4804212055F
:1008100049D093B301EBC10202EB0111401EB0FBC2
:10082000F1F0401CC0F30B0040F4804040F4004065
:100830002168CA694CF6FF739A431043C861D4E932
:100840000701084321680A6822F0C00210430860CB
:10085000D4E90310084321688A6848F2FF339A43B9
:1008600010438860D4E9050108432168CA6822F072
:10087000FF021043C86001E00EE016E02068016846
:1008800041F0010101602564202084F83D002563CA
:1008900084F83E50002070BD01EB4106421EB2FBC1
:1008A000F6F2521CB3E70120C2E701EB4101401E02
:1008B000B0FBF1F0401CC0F30B00B7E7FD080008E7
:1008C000FB0800089F0A00089D0A0008F9080008B4
:1008D00001090008FF080008110700080D070008BB
:1008E0000F070008350A0008A086010080841E005A
:1008F00000093D0040420F00704770477047704745
:10090000704700002DE9FF4F83B09A46DDE911974B
:1009100093460446DDF84080FFF7F2FE054694F862
:100920003D0020287FD1192301224049204600950F
:1009300001F024F8002876D194F83C00012872D008
:10094000012084F83C0020680168C90703D10168D0
:1009500041F0010101602068016821F4006101603B
:10096000212084F83D00402084F83E0000262664C3
:10097000C4F82480A4F82A90608D20852C48E06279
:10098000CDE9007553465A462046049900F076FF9B
:1009900070B930E02A463946204601F095F858B142
:1009A000206C042804D12068016841F400710160C2
:1009B000012007B0BDE8F08F606A21680078086107
:1009C000606A401C6062218D491E89B22185628D5A
:1009D000521E628522685369DB435B070BD469B101
:1009E00000781061606A401C6062208D401E208586
:1009F000608D401E6085208D0028CBD12A46394667
:100A0000204600F08FFF0028CAD154F83D0B016842
:100A100041F400710160202004F81E09E677667732
:100A20000020C6E7FFE70220C3E700000200100035
:100A30000000FFFF10B586B0044614216846FFF79A
:100A400090FC13492068884220D112480021026896
:100A500042F002020260006800F002000590C0202F
:100A600000901220CDE9010103200390042004909E
:100A700069460948FFF74AFD06481030016841F40D
:100A800000110160006800F40010059006B010BD70
:100A90000054004030380240000402407047704764
:100AA0000248816802781144816070470C00002080
:100AB0000B4810B5016841F400710160016841F410
:100AC00080610160016841F480710160032000F0E1
:100AD0006FF80F2000F006F800F024F8002010BD99
:100AE000003C024070B50D4D04464FF47A712878F1
:100AF000B1FBF0F00A490968B1FBF0F000F00CFB23
:100B000048B9102C07D200222146501E00F030F8C0
:100B100000206C6070BD012070BD00000C00002042
:100B2000080000200A4808B5016841F480410160CE
:100B3000006800F4804000900548001F016841F003
:100B400080510160006800F08050009008BD0000F6
:100B500044380240002809DB00F01F0201219140C7
:100B60004009800000F1E020C0F80011704700004B
:100B7000F0B40E4B1B680C46C3F30223C3F1070508
:100B8000042D00D90425191D072901D2002300E0F6
:100B9000DB1E012606FA05F1491E214099409E40C0
:100BA000761E16403143F0BC01F0FFBD0CED00E0B5
:100BB000064900F0070208684FF6FF03184040EAB4
:100BC0000220034A10430860704700000CED00E06B
:100BD0000000FA052DE9F0470E46050065D0DFF864
:100BE0001481D8F80000F7B200F00700B04207D235
:100BF00088F80070D8F8000000F00700B04254D127
:100C000028683D4C810712D5400703D5206840F481
:100C1000E05020602878000703D5206840F4604049
:100C200020602068A96820F0F00008432060287840
:100C3000C0072DD0304968680839012812D0022831
:100C400013D0032811D00968890700292DDA2168FB
:100C500021F0030101432160FFF752FD814641F27B
:100C6000883A0EE009688903EFE709688901ECE733
:100C7000FFF746FDA0EB0901514502D90320BDE86D
:100C8000F0872068696800F00C00B0EB810FEFD1AD
:100C9000D8F80010404601F00701B14207D90770AB
:100CA000006800F00700B04201D00120E7E7287893
:100CB000400705D52068E96820F4E050084320602B
:100CC0002878000706D52068296920F4604040EAAA
:100CD000C100206000F038F82168084AC1F3031110
:100CE000515CC8400649086006480068FFF7FAFEF4
:100CF0000020C4E7003C02400838024008430008D6
:100D00000800002010000020044805490068096818
:100D1000044AC1F38221515CC8407047080000209A
:100D2000083802401843000804480549006809686B
:100D3000044AC1F34231515CC840704708000020AA
:100D40000838024018430008154810B5006810F034
:100D50000C02144813D01449042A0FD0082A0ED1CB
:100D60000F4C241F2268236802F03F025B0207D564
:100D70002068C0F38810A0FB010106E0084610BD02
:100D80002168C1F38811A1FB00010023FFF772FA6B
:100D90002168C1F30141491C4900B0FBF1F010BDCD
:100DA000083802400024F40040787D012DE9F84F16
:100DB00004006ED02078DFF84C93C007A9F1040539
:100DC0004AD009F104000168C1F38101012908D06A
:100DD0000068C0F3810002280AD1D9F8000040025F
:100DE00006D52868800337D560680028E1D033E055
:100DF0006068B0F5803F10D0B0F5A02F286810D003
:100E000020F480302860286820F480202860606802
:100E1000A8B1FFF775FC06460DE0286840F4803065
:100E2000F4E740F480202860F7E700BFFFF768FC94
:100E3000801B642873D828688003F7D50CE0FFF77F
:100E40005FFC064605E000BFFFF75AFC801B6428E4
:100E5000F0D828688003F7D42078DFF8AC828007C8
:100E60004FF0000A3ED5A748001D016811F00C0F95
:100E700008D00068C0F3810002280BD1D9F8000027
:100E8000400207D42868800716D5E068012800D101
:100E900012E033E1E068B8B10120C8F80000FFF7C4
:100EA0002FFC064605E000BFFFF72AFC801B022846
:100EB000C0D828688007F7D52868216920F0F80095
:100EC00040EAC10028600DE0C8F800A0FFF718FC58
:100ED000064604E0FFF714FC801B02281FD8286890
:100EE0008007F7D42078000722D5864F87486169AC
:100EF000703771B101210160FFF702FC064604E082
:100F0000FFF7FEFB801B022809D838688007F7D559
:100F10000EE0C0F800A0FFF7F3FB064605E082E014
:100F2000FFF7EEFB801B02287DD838688007F7D4D6
:100F30002078400768D5DFF8CCB100270BF13C0BD7
:100F4000DBF80000C0000BD4DBF8001041F080514A
:100F5000CBF80010DBF80000012700F08050009073
:100F60006B4E3068C00510D4306840F4807030603B
:100F7000FFF7C6FB009005E0FFF7C2FB0099401A9F
:100F8000022850D83068C005F6D55E4EA0686C3691
:100F900001280FD00528306810D020F00100306003
:100FA000306820F004003060A068B8B1FFF7A8FBFB
:100FB00000900FE0306840F00100F4E740F00400DA
:100FC0003060F7E7FFF79CFB0099411A41F2883047
:100FD000814266D830688007F4D50EE0FFF790FBB9
:100FE000009007E0FFF78CFB0099411A41F288302E
:100FF000814256D830688007F4D42FB1DBF8001056
:1010000021F08051CBF80010A069C8B33D49091DFB
:101010000968C1F3810102294AD00228504607D04D
:10102000C8F8600000E03CE0FFF76AFB04463BE0E4
:101030004746C8F86000FFF763FB064605E000BFBF
:10104000FFF75EFB801B02282BD828688001F7D4AD
:10105000D4E907010843A16A2E4A490802EB01417D
:10106000626A41EA8211084394F82C1040EA016157
:10107000C9F8001001203866FFF742FB044606E07D
:101080003EE000BFFFF73CFB001B022809D82868A0
:101090008001F7D534E000BFFFF732FB001B0228C8
:1010A00002D90320BDE8F88F28688001F4D427E036
:1010B0000128F7D0D9F80000E26900F480019142DC
:1010C0001CD1226A00F03F01914217D147F6C0714E
:1010D000626A0140B1EB821F10D1A26A4FF0FF3368
:1010E00000F4403103EB5202B1EB024F06D194F809
:1010F0002C1000F07060B0EB016F01D00120D1E73F
:101100000020CFE70438024000004742800E4742EB
:10111000007000400000FFFF10B5401EB0F1807F5E
:1011200001D3012010BD4FF0E02460610F21601752
:1011300001F03BFB0020A06107202061002010BDD2
:101140007047704710B5040003D094F83D0010B10B
:1011500007E0012010BD002084F83C00204600F08C
:101160001FF8022084F83D00211D206801F056F987
:10117000012084F8460084F83E0084F83F0084F89B
:10118000400084F8410084F8420084F8430084F869
:10119000440084F8450084F83D00002010BD0000A4
:1011A00008B500680B49884212D10B48016841F428
:1011B000802101600068002200F480200090114628
:1011C0001A20FFF7D5FCBDE808401A20FFF7C2BC83
:1011D00008BD0000004801404438024090F83D102E
:1011E000012901D001207047022180F83D100168DB
:1011F000CA6842F00102CA6000680E4988420ED0F7
:10120000B0F1804F0BD00C49884208D00B4988427E
:1012100005D00B49884202D00A49884204D181682E
:1012200001F00701062903D0016841F001010160C6
:10123000002070470000014000040040000800400A
:10124000000C00400040014070472DE9F041044689
:101250000068C66805694FF00007A90713D5B107F4
:1012600011D5F91E0161012020772068806980076F
:10127000204602D0FFF7E8FF04E000F07EF82046A9
:1012800000F07CF82777680716D5700714D5216819
:101290006FF004000861022020772068806910F454
:1012A000407F204602D0FFF7CFFF04E000F065F852
:1012B000204600F063F82777280715D5300713D5A7
:1012C00021686FF008000861042020772068C06959
:1012D0008007204602D0FFF7B7FF04E000F04DF88A
:1012E000204600F04BF82777E80616D5F00614D50F
:1012F00021686FF010000861082020772068C0691D
:1013000010F4407F204602D0FFF79EFF04E000F07B
:1013100034F8204600F032F82777E80708D0F007C5
:1013200006D021686FF001000861204600F027F820
:10133000280608D5300606D521686FF080000861C0
:101340002046FFF7FDFE680608D5700606D5216821
:101350006FF040000861204600F012F8A8060AD598
:10136000B00608D521686FF0200008612046BDE86E
:10137000F041FFF7E6BEBDE8F08170477047704767
:101380007047704770470000F8B501680446086868
:10139000CA684B6910F00F0F4FF0000559D003F0E9
:1013A000010602F49077374365D0C10705D0D10517
:1013B00003D5616C41F001016164410705D5D9078E
:1013C00003D0616C41F002016164810705D5D90742
:1013D00003D0616C41F004016164010707D502F09C
:1013E0002001314303D0616C41F008016164616CFC
:1013F00000293AD0800604D5900602D5204601F097
:101400008BF820684069616CC0F38010090700D434
:1014100060B3204601F059F820684069400621D5A4
:101420002068143050E8001F21F0400140E800120D
:10143000002AF5D1E06BA8B172490165E06BFFF7B6
:1014400041F8002811D0E06B016D01B0BDE8F0401B
:10145000084783060FD593060DD52046BDE8F84012
:1014600001F05AB82046FFF78DFFF8BD2046FFF780
:1014700089FF6564F8BD266B2023012E7ED1C60648
:101480007CD5D6067AD508684868009048694FF040
:10149000020640064DD5E26B106840684FF4807735
:1014A0000004000C3AD0A18D814237D9E085D06983
:1014B000B8422DD020680C3050E8001F21F4807114
:1014C00040E80012002AF5D12068143050E8001FCF
:1014D00021F0010140E80012002AF5D12068143003
:1014E00050E8001F21F0400140E80012002AF5D129
:1014F00084F84230256320680C3050E8001F21F04A
:10150000100140E80012002AF5D1E06BFEF791FFD0
:101510006663A08DE18D401A81B206E0A18D814203
:10152000A8D1D069B842A5D166632046FFF729FF4C
:10153000F8BDA08DE18D401A81B2E08D0028F7D072
:101540000029F5D020680C3050E8002F22F490726A
:1015500040E80027002FF5D12068143050E8002F14
:1015600022F0010240E80027002FF5D184F8423034
:10157000256320680C3050E8002F00E006E022F0E0
:10158000100240E80023002BF3D1CDE705062BD550
:10159000150629D594F841002128C9D1A068B0F5D5
:1015A000805F01D12069B0B1206A411C21622168AD
:1015B00000784860E08C401E0004000CE084B7D145
:1015C0002068C16821F08001C1602068C16841F0D5
:1015D0004001C160F8BD206A0088C0F3080048607F
:1015E000206A801C2062E5E74006F3D55006F1D55D
:1015F000CA68204622F04002CA6084F8413000F0F8
:1016000023F9F8BDBD24000870B5040004D094F897
:101610004100002510B106E0012070BD84F8405063
:10162000204600F023F8242084F841002068C16897
:1016300021F40051C160204600F0D0FF206801690C
:1016400021F4904101612068416921F02A01416142
:101650002068C16841F40051C1606564202084F8AD
:10166000410084F842006563002070BDF0B587B08A
:10167000044614216846FEF774FE2A49284F26685E
:101680000025284A1439022303242748BE421FD1CB
:10169000166846F010061660126802F010020592F5
:1016A0000A6842F001020A60096801F0010105912F
:1016B00061028DE82A000721CDE903416946FEF762
:1016C00025FF002211462520FFF752FA252022E0AF
:1016D000164FBE4221D1166846F0200616601268E9
:1016E00002F0200205920A6842F001020A600968CD
:1016F00001F0010105914FF4C0518DE82A00082145
:10170000CDE903416946FEF701FF0022114647205B
:10171000FFF72EFA4720FFF71DFA07B0F0BD0000D3
:101720000010014044380240000002400014014013
:1017300090F84230202B01D00220704721B11AB11D
:101740000023036300F0D0BF0120704700680F49F9
:10175000884219D00E49884216D10E4800780028D8
:1017600012D10D480178FF2901D300210170C9B2BF
:10177000491CC9B2094A01700220107008480122B0
:1017800001440848FFF7D4BF704700000010014033
:10179000001401400500002002000020010000208C
:1017A000E40100202C0300202DE9F843044690F8C2
:1017B0004100984616460D46202802D00220BDE87A
:1017C000F88385B17EB100206064212084F8410057
:1017D000FEF796FFA6848146E684A0682027B0F530
:1017E000805F02D003E00120E9E7206910B12E46B6
:1017F00000250EE000260CE08021204600F08FFF3F
:10180000A8B9C6B116F8010B21684860E08C401EEB
:10181000E084E08C4B464FF00002CDF800800028B9
:10182000EAD14FF04001204600F079FF40B184F842
:1018300041700320C3E735F8020BC0F30800E3E76B
:1018400084F841700020BAE77047FEE701684A69F2
:10185000D24352050FD46FF480624A61002140F8F0
:10186000301F202242738173026942F00402026138
:101870000173012070470020704700002DE9F843F4
:10188000044600680D46DDE908970168984616464B
:1018900041F4807101604B4600224FF00111204657
:1018A000009700F06BF848B120680068C00502D5C9
:1018B0004FF4007020640320BDE8F883216805F030
:1018C000FE0008613B464A461549204600F09EF856
:1018D00088B920684169806900903A4649462046A7
:1018E00000F0F2F848B1206C042804D120680168A7
:1018F00041F4007101600120DEE7F5B2B8F1010F9B
:1019000009D02168300A08613A464946204600F06D
:10191000DBF80028E7D1206805610020CCE7000053
:101920000200010070B516460D4604461EE0204632
:10193000FFF78CFF08B1012070BD681C16D0FEF7C0
:10194000DFFE801BA84200D885B920684069C043EB
:1019500040070BD5002044F8300F20216173A0739D
:10196000216941F0200121612073E4E7206840698A
:10197000C0434007DBD4002070BD00002DE9F047D4
:10198000984617460D460446C1F30746DDF82090F9
:101990002AE000BFB8F1FF3F26D0FEF7B1FEA0EB72
:1019A0000901414502D8B8F1000F1DD12068012E70
:1019B00016D0806925EA00000004000C12D0002037
:1019C000B84211D1002044F8300F20216173A07378
:1019D000216941F02001216120730120BDE8F087D9
:1019E0004069E7E70120EBE72068012E0AD0806913
:1019F00025EA00000004000C06D00020B842C9D03F
:101A00000020EBE74069F3E70120F7E72DE9F04715
:101A1000984616460D4604464FF000094FF0200A3E
:101A2000C1F3074723E020684069C043400515D44F
:101A30002068016841F40071016021686FF48060E2
:101A40004861C4F8309084F83DA084F83E90216C41
:101A500041F00401216484F83C9021E0701C06D020
:101A6000FEF74EFEA0EB0800B04203D816B1012FDE
:101A70001FD021E02068012F15D0806925EA0000E1
:101A80000004000C18D000BF44F8309F84F80DA06B
:101A900084F80E90216941F02001216184F80C90B6
:101AA0000120BDE8F087406925EA00000004000C31
:101AB000EAD12068406901E02068806925EA0000D9
:101AC0000004000CAFD1ECE770B516460D46044695
:101AD0001EE02046FFF7BAFE08B1012070BD681C69
:101AE00016D0FEF70DFE801BA84200D885B92068ED
:101AF0004069C04300060BD5002044F8300F202178
:101B00006173A073216941F0200121612073E4E732
:101B100020684069C0430006DBD4002070BD00008F
:101B20003EB50A248DE81C000A46014601230248FE
:101B3000FEF7E8FE3EBD00001800002030B5034669
:101B40004FF6FF704AF201041A7850400022C50790
:101B500002D084EA500000E04008521CD2B2082AA9
:101B6000F5D3491E5B1C11F0FF01EDD130BD000023
:101B700000B587B014216846FEF7F3FB1248002138
:101B8000026842F080020260026802F08002059260
:101B9000026842F001020260026802F0010205924E
:101BA000026842F002020260006800F00200059044
:101BB0000720CDE900010120029069460348FEF7A5
:101BC000A5FC07B000BD0000303802400000024014
:101BD0000D4810B50B4901600C49416000214FF4DC
:101BE00080428160C0E9031241618161C16101628B
:101BF000FEF790FD002803D0BDE81040FEF717BCAB
:101C000010BD00000054004018000020801A06009B
:101C10000C4810B50A4901605421416000214FF47D
:101C20007A72C0E90212016180218161FFF78AFAAC
:101C3000002803D0BDE81040FEF7F9BB10BD00003E
:101C4000004801409C0000200C4810B500210170A4
:101C50000C480B4A02604FF4E132C0E901210C222A
:101C6000C160C0E904128161C161FFF7CDFC0028A9
:101C700003D0BDE81040FEF7DABB10BD0000002025
:101C800000100140E40200200D4810B50021417011
:101C900081700D480B4A02604FF4E132C0E9012126
:101CA0000C22C160C0E904128161C161FFF7ACFC84
:101CB000002803D0BDE81040FEF7B9BB10BD0000FE
:101CC00000000020001401402C030020FEE7FEE786
:101CD00010B500218D2000F00FFB0021142000F032
:101CE0000BFB0021BDE81040AF2000F005BBF0B5B4
:101CF000121ADDE9056501D4144600E05442E4B24D
:101D00005B1A01D41F4600E05F42FFB2BC4200D222
:101D10003C4600EE102AB6EE002A0027F8EEC00A74
:101D200000EE104AB8EE400AC0EE801A00EE103AFB
:101D3000F8EEC00A00EE104AB8EE400A80EE801AB3
:101D400000EE100AB8EE400A70EE020A00EE101A19
:101D5000B8EE400A30EE020A19E0B7FBF5F005FBD9
:101D6000107008B1012F0CD1BCEEC02A324612EE21
:101D7000100ABCEEE02AC1B212EE100AC0B200F0A6
:101D800009F870EEA10A30EE010A7F1CFFB2A742EB
:101D9000E3D9F0BD30B5802810D23F290ED801F02C
:101DA00007040123064DA340C90805EBC111002A11
:101DB0000A5C01D01A4300E09A430A5430BD000087
:101DC000560500202DE9F04F89B09042DDE9126CF4
:101DD000149F02D28146904601E091468046994286
:101DE00002D28B469A4601E09B468A46A8EB09013F
:101DF000C1F34600B04205D3AAEB0B02C2F3460280
:101E0000B24209D2CBB2AAEB0B01CAB2934201D2C1
:101E1000064601E0C1F34606032035460024A0EB48
:101E200045000290BCF1000F7DD0BCF1010F7BD1C9
:101E3000AAEB06000BEB060A0390AC4275DCA8EB9C
:101E4000060104912144AAEB0500CAB20691C3B26F
:101E5000C1B209EB06000790001B05904FF0010B83
:101E6000CDE9007BC0B2FFF742FF0499AAEB040062
:101E70002944CAB20491C3B2C1B20798CDE9007B2C
:101E8000401B0790C0B2FFF732FFCDE9007B0398FB
:101E900006992844CAB2C3B2C1B20598C0B2FFF7CE
:101EA00026FF039804992044CAB2C3B2C1B2CDE957
:101EB000007B0798C0B2FFF71AFF029800287DDA6E
:101EC00000EB8400801D02909BE0701BC1B2069065
:101ED00005983A46001B0090C0B2FFF75BFF301B2D
:101EE000C1B2019005983A46401B0790C0B2FFF777
:101EF00051FF06983A46C1B2049820440690C0B2F9
:101F0000FFF748FF01983A46C1B204982844089068
:101F1000C0B2FFF73FFF03983A462844C1B2019090
:101F20000098C0B202E02AE062E06CE0FFF732FF06
:101F300003983A462044C1B200900798C0B2FFF718
:101F400029FF01983A46C1B20698C0B2FFF722FFB6
:101F500000983A46C1B20898C0B2FFF71BFF02983A
:101F6000002804DA00EB8400801D029005E0611B6C
:101F700000EB81000A306D1E0290641C0AE0AAEB9F
:101F800006000390A8EB0600049009EB06000BEB9B
:101F900005060590AC4298DD0124CDE90074049853
:101FA000059D401E5B46C2B202906D1C1946E8B208
:101FB000FFF79DFECDE90074534600E01BE0029858
:101FC0001946C2B2E8B2FFF792FE039DCDE9007454
:101FD0006D1E4A46761CEBB2F1B21046FFF787FE43
:101FE000CDE900744246EBB2F1B21046FFF77FFE36
:101FF00009B0BDE8F08F611B00EB81000A306D1E57
:102000000290641C19E7039D01260AF101046D1E6C
:1020100008E0CDE90076E3B24246E1B24846FFF778
:1020200066FE641CA542F4DAE2E7000070B5002207
:10203000094EFF241546002106EBC21308B15C547B
:1020400000E05D54491CC9B28029F7D3521CD2B2BA
:10205000082AF0D370BD000056050020024601207A
:1020600000E05043491EC9B2FBD2704710B50021B1
:10207000AE2000F041F90021202000F03DF90021C0
:10208000022000F039F90021084600F035F900215E
:10209000102000F031F90021402000F02DF900213E
:1020A000B02000F029F90021812000F025F900215D
:1020B000FF2000F021F90021A42000F01DF90021EB
:1020C000A62000F019F90021A12000F015F9002147
:1020D000C82000F011F90021A82000F00DF900211E
:1020E0003F2000F009F90021D32000F005F900217C
:1020F000084600F001F90021D52000F0FDF800218C
:10210000C02000F0F9F80021D92000F0F5F80021F6
:10211000F12000F0F1F80021DA2000F0EDF80021C4
:10212000122000F0E9F80021DB2000F0E5F80021A2
:10213000302000F0E1F800218D2000F0DDF80021D2
:10214000142000F0D9F80021AF2000F0D5F80020CD
:10215000FFF76CFF0021084600F020F8BDE81040B2
:10216000FFF7B6BD2DE9F0410B4F002421460020BA
:1021700000F014F8002507EBC4160121705D00F093
:10218000BBF86D1CEDB2802DF7D3641CE4B2082CB3
:10219000ECD3BDE8F08100005605002010B50446E0
:1021A000B031C8B2002100F0A7F8102040EA1410A6
:1021B000002100F0A1F804F00F00BDE8104000215C
:1021C00000F09AB870B5203A0024049ED2B27F285D
:1021D00002D90020891CC9B2194D102B12D0062B30
:1021E0000FD1184B02EB420203EB420205EBC11385
:1021F000115D06B1C9430519641CE4B25955062C9A
:10220000F6D370BD104B03EB021205EBC113115D49
:1022100006B1C9430519641CE4B25955082CF6D31C
:102220005FF0000102EB0104247A06B1E443451893
:102230001D44491CC9B285F880400829F2D370BDFD
:1022400056050020F0380008183B00082DE9F84F2B
:102250000026DDE90AA81D4691468B46074634460E
:1022600027E0281B401EC1B20A20FFF7F7FEB9FB8A
:10227000F0F00A21B0FBF1F201FB120026B9691E51
:102280008C4201DA48B101263030C2B207EBC400FB
:10229000C0B25346CDF8008006E007EBC400C0B2E0
:1022A00053462022CDF800805946FFF78BFF641C6F
:1022B000E4B2AC42D5D3BDE8F88F2DE9F843994696
:1022C00017460E4604460025DDF820800FE04B46F9
:1022D00031462046CDF80080FFF774FF0834E4B2A1
:1022E000782C02D90024B61CF6B26D1CEDB27A5DD2
:1022F000002AECD1BDE8F88313B54FF001036A461C
:1023000009B1402100E000217820FFF709FC1CBD45
:102310007047000010B5044606E064230122214600
:102320000348FFF741FA641C20780028F5D110BD5E
:10233000E40200207047FEF7B3BB000030B593B055
:1023400030216846FEF70DF814210CA8FEF709F8B5
:102350001D480025016841F080510160006800F0CF
:10236000805011901948016821F4404141F4004126
:1023700001600068022400F44040119001200090A8
:10238000000401908001CDE9064019200890A820A2
:10239000CDE9090404200B906846FEF707FD08B15B
:1023A00072B6FEE70CA90F2081E831004FF480508F
:1023B000CDE90F0502210CA8FEF70CFC002801D086
:1023C00072B6FEE713B030BD4038024000700040E6
:1023D0000248016841F470010160704788ED00E037
:1023E00010B50A48FEF731FF0949087800280BD0DC
:1023F000401E10F0FF00087006D106480078002843
:1024000002D005490120087010BD00009C0000208A
:10241000010000200200002005000020F0B5026845
:102420001F4B204C204D214E4FF0804C984207D03E
:10243000604505D0A04203D0A84201D0B04203D1EC
:1024400022F070074A683A43984210D060450ED097
:10245000A0420CD0A8420AD0B04208D0144CA042EE
:1024600005D0144CA04202D0134CA04203D122F458
:102470004074CA6822434C6922F0800222438C686F
:10248000C4620C688462984201D1096901630168E1
:1024900041F004010160012141610260F0BD0000D2
:1024A000000001400004004000080040000C004013
:1024B00000400140004401400048014010B5806BDD
:1024C0000021C185FEF75EFF10BD01680C3151E8A7
:1024D000002F22F4907241E80023002BF5D101680F
:1024E000143151E8002F22F0010241E80023002BB3
:1024F000F5D1016B012909D101680C3151E8002F98
:1025000022F0100241E80023002BF5D1202180F8B1
:10251000421000210163704708B590F8421022294B
:1025200001D0022008BD82684FF480539A4201D145
:10253000016921B1816A9A421BD04AB10AE002685E
:10254000816A5268C2F308020A80816A891C08E025
:10255000026972B10268526802F07F020A70816AF1
:10256000491C8162C18D491E0904090CC18503D033
:102570001BE002685268F1E70168CA6822F0200295
:10258000CA600168CA6822F48072CA6001684A6938
:1025900022F001024A61202180F8421000214163AB
:1025A000026B012A03D0FFF7D1F8002008BD0163B8
:1025B00001680C3151E8002F22F0100241E800239D
:1025C000002BF5D101680A68D20602D50A6849686D
:1025D0000091818DFEF7D5FEE7E7000070B5044657
:1025E00000680169E26821F44051114301612169E9
:1025F000A068E26908436169114308432168CA6819
:1026000049F20C639A430243CA6020684169A26997
:1026100021F440711143416131492068884202D060
:102620003049884202D1FEF77FFB01E0FEF76CFBE8
:10263000E2690023192164253226B2F5004F626851
:1026400028D0A0FB0101930F9200FDF713FE014675
:10265000B0FBF5F06FF01802504301EB800006EB81
:102660000010B0FBF5F000F0F002B1FBF5F002EB6A
:102670000012B1FBF5F06FF01803584301EB800036
:1026800006EB0010B0FBF5F000F00F0021681044DD
:10269000886070BDA0FB010192185B41FDF7EAFD67
:1026A0000146B0FBF5F00201B1FBF5F06FF0180345
:1026B000584301EB800006EBC000B0FBF5F000F0E2
:1026C000F80002EB4002B1FBF5F0584301EB80004B
:1026D00006EBC000B0FBF5F000F00700D6E7000005
:1026E000001001400014014081628285C2850021F2
:1026F0004164222180F84210016921B10168CA6851
:1027000042F48072CA6001684A6942F001024A617B
:102710000068C16841F02001C160002070472DE9C8
:10272000F843984617460D460446089E24E0701C60
:1027300022D0FDF7E5FFA0EB0800B0421AD8CEB1D9
:102740002068C168490717D5802D15D0402D13D0BA
:102750000168C94309070FD401680025406800904B
:102760002046FFF7B2FE0820606484F84050012044
:10277000BDE8F8830320FBE72068006835EA000025
:1027800004D00020B842D2D00020F1E70120F9E7C0
:102790000148FEF7F9BD0000E40200200148FEF701
:1027A000F3BD00002C030020FEE70907090E0028F6
:1027B00004DB00F1E02080F80014704700F00F0007
:1027C00000F1E02080F8141D704700000068064901
:1027D000884201D1054870470549884201D1054822
:1027E000704700207047000000100140E400002006
:1027F00000140140E40100200068064A06499042A6
:1028000001D108787047054A904201D18878704715
:10281000002070470010014000000020001401401B
:102820002DE9F0412D4F05460024264601220221C4
:102830003846FDF760FF012211463846FDF75BFF81
:10284000012204213846FDF756FF0A20FDF74CFE11
:1028500002213846FDF74AFFAC423BD870B1012156
:102860003846FDF743FF58B104213846FDF73EFFD7
:1028700040B1AC422ED2641CA4B2E6E7012616E0B9
:10288000022622E0032603E0022E1ED0032EDCD116
:102890000A20FDF729FE04213846FDF727FF00280E
:1028A000D3D1AC42D1D2641CA4B2012EECD10A2007
:1028B000FDF71AFE02213846FDF718FF0028C4D1A3
:1028C000AC42C2D2641CA4B2F1E70A20FDF70CFEB0
:1028D0000121E1E73046BDE8F08100000000024040
:1028E00086B0FEF7E5F8FFF729FDFFF741F9FFF79E
:1028F0006FF9FFF7A9F9FFF7C7F9FFF789F9FFF7B4
:10290000B5FB0020FFF792FBFFF72CFC0024ADF88D
:1029100010408DF80C404FF0100942F2107B47F246
:10292000305AC820FFF77CFF012510274FF0080818
:1029300000287DD0CBA0FFF7EDFC4946002000F039
:10294000E5F90020FFF772FB00211023CEA2084614
:102950000094FFF7B2FC1023CDA2032100200094C5
:10296000FFF7ABFCFFF7FEFB9DF80C008DF81400A1
:1029700003A9584600F062FF04A9504600F07AFF10
:102980000020FFF753FB00211023BFA2084600954B
:10299000FFF793FC9DF80C004FF01003009460B11A
:1029A000BFA204210020FFF788FCCDE900853B236E
:1029B0007C221421552002950CE0BCA204210020A9
:1029C000FFF77BFCCDF800803B237C2214215520AF
:1029D000CDE90145FFF7F6F9FFF7C4FB1023B6A2D6
:1029E000062100200094FFF768FCCDE90074012364
:1029F0000621BDF810202D2061E00020FFF716FB16
:102A00009DF814008DF80C00E8B104A9504600F0C0
:102A1000D7FEBDF8100004A9401CADF810005046C8
:102A200000F028FF102304219DA20020009400E064
:102A300056E0FFF742FCCDE900853B237C221421C0
:102A40005520029511E00020FFF7F0FA102397A21D
:102A5000042100200094FFF730FCCDF800803B23D8
:102A60007C2214215520CDE90145FFF7ABF904A9DB
:102A7000504600F0A5FE10238FA2062100200094EE
:102A8000FFF71BFCCDE900740323BDF810200621DD
:102A90002D20FFF7DBFB002110237BA208460095C9
:102AA000FFF70BFC102386A2022100200094FFF701
:102AB00004FCCDE9007403234A4602212D20FFF7D0
:102AC000C5FBFFF74FFB00F045FA05A9584600F09B
:102AD00057FE9DF814009DF80C108842C7D08CE773
:102AE00079A0FFF717FC4946012000F00FF90020FC
:102AF000FFF79CFA002110237CA208460094FFF700
:102B0000DCFB10237BA2032100200094FFF7D5FB00
:102B1000FFF728FB8DF800504FF4967607E0334618
:102B200000225946484600F067FD8DF800009DF8E8
:102B300000000028F3D18DF8005007E03346002252
:102B40005146484600F0AEFD8DF800009DF80000AB
:102B50000028F3D103AB012259464846009600F005
:102B600015F90028F6D104AB0122514648460096DB
:102B700000F07CF90028F6D1FFF758FA0021102365
:102B80005AA208460095FFF798FB10235DA2022188
:102B900000200094FFF791FBCDE9007403234A461F
:102BA00002212D20FFF752FB9DF80C004FF010037F
:102BB000009460B13AA204210020FFF77EFBCDE92A
:102BC00000853B237C221421552002950CE037A27E
:102BD00004210020FFF771FBCDF800803B237C220D
:102BE00014215520CDE90145FFF7ECF8102332A25E
:102BF000062100200094FFF760FBCDE90074032359
:102C0000BDF8102006212A20FFF720FBFFF7AAFAC3
:102C10003220FFF705FE00289CD003AB0122594665
:102C20004846009600F0B2F80028F6D19DF80C0056
:102C3000A8B100208DF80C0033469DF80C205946B1
:102C4000484600F0D9FC0028F6D104AB01225146D9
:102C50004846009600F00AF90028F6D17AE70120EC
:102C6000E8E7000055415254313A20456E746572D0
:102C7000206D6F6462757320736C617665206D6F73
:102C80006465210D0A000000536C61766500000048
:102C9000496E697469616C697A696E672E2E2E00BF
:102CA0004C69676874204F6E000000004C696768CB
:102CB00074204F6666000000436E743A0000000006
:102CC000416464723A00000055415254313A204543
:102CD0006E746572206D6F64627573206D617374BC
:102CE0006572206D6F6465210D0A00004D6173747B
:102CF00065720000436F6E6E656374696E672E2E99
:102D00002E000000446573743A0000000A461B4917
:102D100010B50A70487000208870194A0146505456
:102D2000491C89B20D29FAD3154A00210D3250549D
:102D3000491C89B20D29FAD3114A002112F11A0255
:102D400022F81100491C89B23229F9D30C4A00211A
:102D500012F17E0222F81100491C89B23229F9D3FE
:102D60000848FEF73BFA0848FFF730FD014601220C
:102D70000548FEF7DDFC012010BD00000300002027
:102D8000740300209C0000202C0300202DE9FF5F2D
:102D90001646DDF838A08146B2F5FA6F03D90F2048
:102DA00004B0BDE8F09F2E4D012085F800906870BA
:102DB000080AA870E970300A28716E710621284649
:102DC000FEF7BCFEA871000AE871642308222946B8
:102DD0002448FEF7E9FC0127FDF792FCDFF888B0F4
:102DE000804600BFFDF78CFCA0EB0801514501D9DE
:102DF000012400279BF80200F8B100241948FFF7CE
:102E0000E5FC05461748FFF7F7FC01462846FEF7A4
:102E100095FE00B159242978494500D0602468788E
:102E2000012800D06124A978F01DB1EBD00F01D0AA
:102E3000622400E02CB100F08DFC002FD2D120469E
:102E4000AEE7002005E02918CA7803990A54401C0F
:102E5000C0B2A9788142F6D800F07CFCEFE7000010
:102E6000560400202C030020030000202DE9F05F11
:102E70009946DDF828B0164682467D2A02D90F20F1
:102E8000BDE8F09F304D032085F800A06870080A67
:102E9000A870E970300A28716E7106212846FEF785
:102EA0004DFEA871000AE8716423082229462748CC
:102EB000FEF77AFC0127FDF723FC8046FDF720FC96
:102EC000A0EB0801594501D901240027204880784A
:102ED000F8B100241D48FFF779FC05461B48FFF7B1
:102EE0008BFC01462846FEF729FE00B159242978BB
:102EF000514500D060246878032800D06124A87868
:102F00007106090E884201D0622400E02CB100F065
:102F100021FC002FD2D12046B2E700200CE000BFF8
:102F200005EB4002D178090229F8101012791143FB
:102F300029F81010401CC0B2A978B0EB510FEFD3A4
:102F400000F008FCE7E70000560400202C030020F6
:102F50000300002070B5114EB07800281CD0104836
:102F6000FFF74AFC04460E48FFF730FC05462146B1
:102F7000FEF7E4FD60B9022C01D9A41EE4B2287862
:102F800010B13178884203D12146284600F00AF872
:102F9000BDE8704000F0DEBB70BD00000300002003
:102FA0002C0300200246FF205378052B1DD00ADC9D
:102FB000012B11D0022B12D0032B13D0042B1DD1C7
:102FC000104600F027BA062B12D00F2B13D0102B6F
:102FD00014D1104600F0EEB8104600F011B81046BB
:102FE00000F046B9104600F0B3B9104600F074BACC
:102FF000104600F0C1BA104600F072B870470000E9
:103000002DE9F047062902D09120BDE8F0874279EA
:10301000322A01D99320F8E7C178837801EB0321A4
:1030200089B20379A1F51C5102EB0322103996B243
:10303000652901D39220E8E70078E8B32548264DBA
:103040000078287001206870F01DC008A870C817AB
:1030500001EB5070C0F3CF0820F00700081A0024DD
:1030600087B2A246A5F1D50916E0600703D105EBAA
:10307000D40181F803A008EBD70101EB090205EBAD
:10308000D40007F0070304F00701C01C00F01AFC8D
:103090007F1C641CBFB2E4B2B442E6D3A878C01C63
:1030A000C1B20D48FEF74AFD0B49AA78C91C50541D
:1030B000010AAA78084800E009E0001D64231154C1
:1030C000A8780549401DC2B20448FEF76DFB0020F8
:1030D0009BE7000003000020560400202C03002082
:1030E0002DE9F0470446082902D29120BDE8F08777
:1030F0006079217900EB012086B2A179F01DB1EB56
:10310000D00F02D10EB1642E01D99320EEE7E07802
:10311000A17800EB012081B242F27470814203D2A7
:1031200042F21070814201D29220DFE7A1F51C51DA
:103130001039C81701EB5070C0F3CF0820F007001A
:10314000081A87B20025DFF8649010E004EBD5027E
:1031500008EBD70C05F0070307F007010CEB09009B
:10316000D21D00F0AFFB7F1C6D1CBFB2EDB2B542AB
:10317000ECD32078B8B10D4D0020D535215C295411
:10318000401CC0B20628F9D308480621D530FEF706
:10319000D5FCA871000A0549E87164230822D531DD
:1031A0000348FEF701FB0020A0E700008103002098
:1031B0002C0300202DE9F04109291FD302793AB9E7
:1031C00084794279B4EB420F02D10AB1322A02D992
:1031D0009220BDE8F081C378857847F2625603EB10
:1031E00005239BB2D518B54203D847F23055AB4200
:1031F00001D29320EDE7E41D8C4201D09120E8E755
:10320000A3F5EA43303B9CB200230721164D0CE0A6
:103210004618475C7678891C06EB072625F814606B
:10322000641C5B1CA4B2C9B2DBB29342F0D3017838
:10323000B9B10D4C00216434425C6254491CC9B2DE
:103240000629F9D3084806216430FEF777FCA071FF
:10325000000A0549E0716423082264310348FEF73F
:10326000A3FA0020B5E70000F20300202C030020A1
:103270002DE9F047062902D09120BDE8F087427978
:10328000322A01D99320F8E7C178837801EB032132
:10329000037989B202EB032296B2652901D3922009
:1032A000EBE70078F0B32748274DA1F51C510078D3
:1032B000287001206870F01DC008A8701039C81768
:1032C00001EB5070C0F3CF0820F00700081A00246B
:1032D00087B2A246A5F1E20916E0600703D105EB2B
:1032E000D40181F803A008EBD70101EB090205EB3B
:1032F000D40007F0070304F00701C01C00F0E2FA55
:103300007F1C641CBFB2E4B2B442E6D3A878C01CF0
:10331000C1B20D48FEF712FC0B49AA78C91C5054E3
:10332000010A00E00BE00848AA78001D642311544C
:10333000A8780549401DC2B20448FEF735FA0020BE
:103340009BE7000003000020560400202C0300200F
:103350002DE9F0410278002A53D0062902D09120AD
:10336000BDE8F081017919B9417909B1322901D952
:103370009320F5E7C278807847F2625302EB002091
:1033800080B20A189A4203D847F23052904201D2D2
:103390009220E5E71C4A1D4CA0F5EA401278227005
:1033A000032262704A00A270303882B200230320E8
:1033B000A4F164060CE000BF36F81250521C2F0A2C
:1033C00027542718801C5B1C7D7092B2C0B2DBB200
:1033D0008B42F1D3A078C01CC1B20C48FEF7AEFB03
:1033E0000A49A278C91C64235054010A0748A278EC
:1033F000001D1154A0780549401DC2B20448FEF7D3
:10340000D3F90020ACE700000300002056040020A0
:103410002C0300202DE9F0410278002A53D0062920
:1034200002D09120BDE8F081017919B9417909B143
:10343000322901D99320F5E7C278807844F65263A7
:1034400002EB002080B20A189A4203D844F62062A8
:10345000904201D29220E5E71C4A1D4CA0F59C4009
:1034600012782270042262704A00A270203882B260
:1034700000230320A4F164060CE000BF36F81250CC
:10348000521C2F0A27542718801C5B1C7D7092B297
:10349000C0B2DBB28B42F1D3A078C01CC1B20C48E1
:1034A000FEF74CFB0A49A278C91C64235054010A58
:1034B0000748A278001D1154A0780549401DC2B2EA
:1034C0000448FEF771F90020ACE70000030000207B
:1034D000560400202C03002070B5062901D091204D
:1034E00070BD0579FF2D02D025B1932070BD4179C3
:1034F0000029FAD1C178827801EB022189B242F227
:103500007472914203D242F21072914201D292201F
:1035100070BDF031C1F3C70201F007031449012463
:10352000FF2D8D5C04FA03F41FD0A5438D54017860
:10353000C9B10F4C0021D534425C6254491CC9B258
:103540000629F9D30A480621D530FEF7F7FAA0710B
:10355000000AE071A0780649401DC2B26423D5314B
:103560000448FEF721F9002070BD2543DEE7000086
:10357000810300202C03002010B5062901D09120E2
:1035800010BDC178827801EB022189B247F2625204
:10359000914203D847F23052914201D2932010BD9C
:1035A00042790379A1F5EA4102EB03223039104B4D
:1035B00089B223F811200178B9B1002103F1640424
:1035C000425C6254491CC9B20629F9D30848062155
:1035D0006430FEF7B3FAA071000A0549E071642374
:1035E000082264310348FEF7DFF8002010BD000018
:1035F000F20300202C0300202DE9F0471E460AB1FB
:103600004FF47F42244C207005206070080AA0709F
:10361000E170100A2071627106212046FEF78EFAD1
:10362000A071000AE0716423082221461B48FEF7BE
:10363000BBF80124FDF764F8DFF86480074600BF9B
:10364000FDF75EF8C01BB04201D90125002498F8AF
:10365000020078B100251148FFF7CEF881460F48E7
:10366000FFF7B4F84946FEF769FA40B15FF0F0059C
:1036700000F070F8002CE3D12846BDE8F087074839
:10368000FFF7A4F80146044800F0BCF810B100F0C0
:1036900061F8F1E70125EBE7560400202C03002038
:1036A000030000202DE9F047274C1E46207006201D
:1036B0006070080AA070E170100A20716271062122
:1036C0002046FEF73BFAA071000AE071642308224D
:1036D00021461E48FEF768F8207878B30124FDF7EC
:1036E0000FF80746DFF86880FDF70AF8C01BB04204
:1036F00001D90125002498F8020078B1002513486B
:10370000FFF77AF881461148FFF760F84946FEF75F
:1037100015FA30B15FF0F00500F01CF8002CE3D191
:103720000EE00A48FFF752F80146074800F06AF831
:1037300010B100F00FF803E00125EDE7FFE70025E9
:103740002846BDE8F0870000560400202C03002026
:103750000300002010B5084800F0A0F80749002039
:1037600088700548FFF732F80146BDE81040012295
:103770000148FDF7DDBF00002C03002003000020FE
:1037800030B5A0F51C52103AD41702EB547525F051
:1037900007040123141BA340642A01D2074803E055
:1037A000642809D205480D3800EBE5000078184080
:1037B000E0400870012030BD002030BD81030020B2
:1037C000A0F59C42203A322A07D20D4A02EB400073
:1037D000A0F52040B0F8C0030CE0A0F5EA42303A72
:1037E000322A0AD2064A643202EB4000A0F5704049
:1037F000B0F8A00508800120704700207047000045
:103800008E03002002780B789A4213D142784B78CD
:103810009A420FD182788B789A420BD1C278CB78BA
:103820009A4207D102790B799A4203D140794979BA
:10383000884201D00020704701207047A0F51C503D
:1038400010B51038642810D2C21700EB527222F063
:103850000703C01AC4B20648002300EBE2000A4680
:10386000214600F02FF8012010BD002010BD0000FF
:1038700081030020A0F5EA42303A322A09D2064AF2
:10388000098802EB4000A0F57040A0F8A0150120C7
:103890007047002070470000F20300200068064BCC
:1038A0000021064A984201D111707047044B98429A
:1038B000FBD1917070470000001001400000002013
:1038C0000014014070B50478012505FA01F666EA96
:1038D0000404E443047012789D402A40DA408A4090
:1038E0001443047070BD4FF04070E1EE100A704751
:1038F0000000000000000000002F00000000070092
:10390000070000147F147F1400242A7F2A1200620B
:1039100064081323003649552250000005030000B7
:1039200000001C224100000041221C000014083E3F
:1039300008140008083E0808000000A06000000805
:103940000808080800006060000000201008040259
:10395000003E5149453E0000427F40000042615117
:103960004946002141454B31001814127F100027B1
:1039700045454539003C4A49493000017109050374
:1039800000364949493600064949291E00003636A5
:103990000000000056360000000814224100001408
:1039A00014141414000041221408000201510906E5
:1039B00000324959513E007C1211127C007F494966
:1039C0004936003E41414122007F4141221C007F97
:1039D00049494941007F09090901003E4149497AA5
:1039E000007F0808087F0000417F4100002040411F
:1039F0003F01007F08142241007F40404040007F8B
:103A0000020C027F007F0408107F003E4141413ECE
:103A1000007F09090906003E4151215E007F091916
:103A200029460046494949310001017F0101003F13
:103A30004040403F001F2040201F003F4038403F93
:103A400000631408146300070870080700615149F7
:103A5000454300007F41410000552A552A5500008A
:103A600041417F0000040201020400404040404008
:103A7000000001020400002054545478007F4844A0
:103A8000443800384444442000384444487F0038D7
:103A90005454541800087E0901020018A4A4A47C00
:103AA000007F080404780000447D400000408084CA
:103AB0007D00007F102844000000417F4000007C12
:103AC00004180478007C080404780038444444381E
:103AD00000FC242424180018242418FC007C08046A
:103AE000040800485454542000043F444020003C43
:103AF0004040207C001C2040201C003C4030403CCA
:103B0000004428102844001CA0A0A07C0044645459
:103B10004C4414141414141400000000000000009D
:103B20000000000000000000000000F8000000009D
:103B3000000000333000000000100C06100C0600DE
:103B4000000000000000000040C07840C078400045
:103B5000043F04043F040400007088FC08300000A7
:103B6000001820FF211E0000F008F000E0180000FF
:103B700000211C031E211E0000F0088870000000B8
:103B80001E2123241927211010160E00000000000A
:103B90000000000000000000000000E01804020027
:103BA000000000071820400000020418E000000098
:103BB0000040201807000000404080F08040400096
:103BC0000202010F01020200000000F000000000EC
:103BD0000101011F010101000000000000000000C0
:103BE00080B0700000000000000000000000000035
:103BF00000010101010101010000000000000000BE
:103C00000030300000000000000000008060180458
:103C1000006018060100000000E010080810E00035
:103C2000000F102020100F00001010F800000000FE
:103C30000020203F20200000007008080888700045
:103C400000302824222130000030088888483000C5
:103C50000018202020110E000000C02010F80000E5
:103C600000070424243F240000F80888880808007E
:103C70000019212020110E0000E010888818000093
:103C8000000F112020110E0000380808C838080065
:103C90000000003F000000000070880808887000E5
:103CA000001C222121221C0000E010080810E00066
:103CB0000000312222110F00000000C0C0000000EF
:103CC0000000003030000000000000800000000014
:103CD000000080600000000000008040201008000C
:103CE00000010204081020004040404040404000D5
:103CF00004040404040404000008102040800000B0
:103D00000020100804020100007048080808F000B4
:103D10000000003036010000C030C828E810E00084
:103D20000718272423140B000000C038E00000000F
:103D3000203C23020227382008F888888870000079
:103D4000203F202020110E00C0300808080838004D
:103D5000071820202010080008F808080810E000C4
:103D6000203F202020100F0008F88888E808100065
:103D7000203F20202320180008F88888E808100039
:103D8000203F200003000000C03008080838000071
:103D900007182020221E020008F808000008F80872
:103DA000203F210101213F20000808F808080000F9
:103DB0000020203F2020000000000808F80808002C
:103DC000C08080807F00000008F888C028180800A4
:103DD000203F20012638200008F8080000000000DD
:103DE000203F20202020300008F8F800F8F80800D4
:103DF000203F003F003F200008F830C00008F808CE
:103E0000203F200007183F00E01008080810E000DD
:103E10000F10202020100F0008F808080808F000F4
:103E2000203F210101010000E01008080810E00017
:103E30000F18242438504F0008F8888888887000AC
:103E4000203F2000030C302000708808080838004C
:103E50000038202121221C00180808F80808180042
:103E60000000203F2000000008F808000008F808C3
:103E7000001F202020201F000878880000C8380874
:103E8000000007380E010000F80800F80008F800EC
:103E9000033C0700073C0300081868808068180886
:103EA00020302C03032C30200838C800C838080004
:103EB0000000203F2000000010080808C838080053
:103EC0002038262120201800000000FE02020200F7
:103ED0000000007F40404000000C30C000000000A7
:103EE000000000010638C00000020202FE000000CF
:103EF000004040407F000000000004020202040075
:103F000000000000000000000000000000000000B1
:103F10008080808080808080000202040000000099
:103F20000000000000000000000080808080000091
:103F30000019242222223F2008F80080800000007F
:103F4000003F112020110E00000000808080000042
:103F5000000E112020201100000000808088F80051
:103F6000000E112020103F20000080808080000083
:103F7000001F222222221300008080F088888818E7
:103F80000020203F202000000000808080808000F2
:103F9000006B94949493600008F800808080000087
:103FA000203F210000203F20008098980000000062
:103FB0000020203F20200000000000809898000092
:103FC00000C08080807F000008F8000080808000B2
:103FD000203F24022D302000000808F800000000D7
:103FE0000020203F20200000808080808080800092
:103FF000203F20003F20003F808000808080000024
:10400000203F210000203F200000808080800000B1
:10401000001F202020201F008080008080000000E2
:1040200080FFA12020110E00000000808080800011
:10403000000E112020A0FF80808080008080800002
:1040400020203F212000010000008080808080002F
:104050000033242424241900008080E080800000A4
:104060000000001F202000008080000000808000F1
:10407000001F202020103F20808080000080808052
:1040800000010E30080601008080008000808080E2
:104090000F300C030C300F00008080008080800007
:1040A0000020312E0E312000808080000080808032
:1040B00080818E70180601000080808080808000E2
:1040C0000021302C2221300000000000807C020200
:1040D00000000000003F404000000000FF00000022
:1040E00000000000FF0000000002027C80000000D1
:1040F0000040403F000000000006010102020404ED
:104100000000000000000000100C042424242526D8
:104110002424242404140C000000000000000000EB
:10412000000000000000000000818141310F01010A
:10413000017F818181F1000000000000000000008B
:10414000000000000000000000042424252624FCB8
:1041500024262524240400000000000000000000A4
:104160000000000000000000818989494929190FD9
:1041700019294949898981000000000000000000D8
:10418000000000000000000000FC0000FF004020D4
:10419000D8171010F0101000000000000000000000
:1041A0000000000000000000000F0402FF0080403B
:1041B00021160816214080000000000000000000C9
:1041C000000000000000000000040404040404FCDB
:1041D00004040404040400000000000000000000C7
:1041E0000000000000000000202020202020203FB0
:1041F00020202020202020000000000000000000DF
:104200000000000000000000000000FE00000000B0
:10421000000000000000000000000000000000009E
:10422000000000000000000000000033000000005B
:10423000000000000000000000000000000000007E
:104240000000000000000000FC2424FC0020E42406
:1042500024FE2223E22000000000000000000000F5
:1042600000000000000000003F11113F00494F49CD
:10427000497F49494F49010000000000000000004B
:104280000000000000000000201809CA4848494A00
:1042900048484CCA0928180000000000000000002F
:1042A00000000000000000000080804F4020180740
:1042B0007880808F80E00000000000000000000097
:1042C0000000000000000000000000FE00000000F0
:1042D00000000000000000000000000000000000DE
:1042E000000000000000000000000033000000009B
:1042F00000000000000000000000000000000000BE
:1043000000000000000000000000000000000000AD
:10431000010203040607080900000000010203046B
:10432000404300080000002018000000D0010008F1
:104330005843000818000020A00F0000EC010008FE
:1043400000000000000000000024F4000100000054
:08435000100000000000000055
:040000050800019559
:00000001FF
