:10000000023F557CA77AB3052C4CA7680774787E0D
:100010007040800474786C777E08052C7E60010245
:020020003F9C03
:1000230002429B74047E34FE817E24007E7A1BB0E0
:0F0033001244E57E34FE877E24007E7E1BB022C1
:100043000242017F20BE344E204012BE344E525035
:100053000C9E344E203E342E340A988016BE3475DE
:10006300304021BE347562501B9E3475303E342EB1
:10007300340AFC7A71827A61830BEA301B2A307E60
:07008300340001226D33225D
:10008B00023E787E1F001C22023EC37C7B200AFDB1
:06009B00D20A7A719B22DB
:1000A300024064CA3B7CE37CF47CD57CC67A73054E
:1000B3006C7AB3056BBEE0013818D2007EB3056BD2
:1000C3007E73056C7C6C7C5D7C4F6C33120F2E024F
:1000D3000601BEC3056B280E7E73056B0A377A379C
:1000E30005730A3C800A0A3C7A3705737E73056BF5
:1000F3007A370577BED3056C280E7E73056C0A37F5
:100103007A3705750A3D800A0A3D7A3705757E738D
:10011300056C7A3705797E5705779E5705730A3B39
:100123001E340A2FBD2318107E3705799E370575B7
:100133000A371E34BD23081D7E3705799E370575A2
:100143007CA7BCB750040A3B80020A3A7E24000213
:10015300120A597CF76D337A37056D0A3F7A3705F2
:100163006F0A2F3E247E3400039D327A37057102D5
:1001730002F9A21692010A2F7D322E3705739E379C
:10018300056D7C677CB72E2705757D129E17056F5D
:100193007C737E40011227DCA21692010A2F7D3266
:1001A3002E3705739E37056F7C677CB72E27057541
:1001B3007D129E17056D7C737E40011227DCA2160B
:1001C30092010A2F7E3705779D322E37056D7C67A6
:1001D3007CB72E2705757D129E17056F7C737E40B5
:1001E300011227DCA21692010A2F7E3705779D3272
:1001F3002E37056F7C677CB72E2705757D129E17FA
:10020300056D7C737E40011227DCA21692010A1F42
:100213007D312E3705739E37056D7C677CB77E274E
:1002230005799D217D122E17056F7C737E40011287
:1002330027DCA21692010A1F7D312E3705739E37E4
:10024300056F7C677CB77E2705799D217D122E176C
:10025300056D7C737E40011227DCA21692010A1FF2
:100263007E3705779D312E37056D7C677CB77E27FA
:1002730005799D217D122E17056F7C737E40011237
:1002830027DCA21692010A1F7E3705779D312E3790
:10029300056F7C677CB77E2705799D217D122E171C
:1002A300056D7C737E40011227DC7E370571BE34F9
:1002B300000058167E37056D3E343E342E3400065A
:1002C3002E3705717A37057180227E37056D9E378B
:1002D300056F3E343E342E34000A2E3705717A37CB
:1002E30005717E37056F1B347A37056F7E37056DD1
:1002F3000B347A37056D7E37056FBE37056D4803BE
:10030300020175A216920F0A1F7D512E5705730B1A
:10031300547E3705757E2705779D211B247C650A4E
:100323002E2E2705751B247E4001122EC2A2169283
:100333000F0A0F7D502E5705730B540A1E7E270597
:10034300797D329D310B347E1705779D101B147C0C
:10035300637E4001122EC2A216920F7E5705730AC6
:100363001F7D312E3705750B340A0E2E0705731BBF
:10037300047C617E2705799D211B247E4001122E7A
:10038300C2A216920F0A1E7E0705777D509D510B60
:10039300540A1F7D312E3705750B347C617E27058A
:1003A300799D211B247E4001122EC2BEC3056B28FA
:1003B300120A2E7E73056B0A372D327A3705730ABC
:1003C3003C80100A2E0A3C2D327A3705737E730562
:1003D3006B0A379D327A370577BED3056C28120A2C
:1003E3002E7E73056C0A372D327A3705750A3D80E8
:1003F300100A2E0A3D2D327A3705757E73056C0A75
:10040300379D327A3705799CFE7E5705779E5705CF
:10041300730A3B1E340A2FBD2318107E3705799EBD
:100423003705750A371E34BD23081D7E3705799EAF
:100433003705757CA7BCB750040A3B80020A3A7E95
:10044300240002120A597CF76D337A37056D0A3F8F
:100453007A37056F0A2F3E247E3400039D327A37A4
:1004630005710205F4A216B392010A2F7D322E37CD
:1004730005739E37056D7C677CB72E2705757D1246
:100483009E17056F7C737E40011227DCA216B39280
:10049300010A2F7D322E3705739E37056F7C677CEB
:1004A300B72E2705757D129E17056D7C737E40015F
:1004B3001227DCA216B392010A2F7E3705779D32ED
:1004C3002E37056D7C677CB72E2705757D129E1729
:1004D300056F7C737E40011227DCA216B392010ADA
:1004E3002F7E3705779D322E37056F7C677CB72EBD
:1004F3002705757D129E17056D7C737E40011227BB
:10050300DCA216B392010A1F7D312E3705739E3785
:10051300056D7C677CB77E2705799D217D122E179B
:10052300056F7C737E40011227DCA216B392010A89
:100533001F7D312E3705739E37056F7C677CB77E31
:100543002705799D217D122E17056D7C737E400151
:100553001227DCA216B392010A1F7E3705779D315D
:100563002E37056D7C677CB77E2705799D217D122B
:100573002E17056F7C737E40011227DCA216B392FF
:10058300010A1F7E3705779D312E37056F7C677C07
:10059300B77E2705799D217D122E17056D7C737E0D
:1005A30040011227DC7E370571BE34000058167EE9
:1005B30037056D3E343E342E3400062E3705717AEE
:1005C30037057180227E37056D9E37056F3E343EB9
:1005D300342E34000A2E3705717A3705717E3705BC
:1005E3006F1B347A37056F7E37056D0B347A370509
:1005F3006D7E37056FBE37056D4803020468DA3B2D
:1006030022020A186E00807CB1337CB033680D047B
:1006130068EF7CB5337CB43378037F10220468E140
:100623007D5092F77D457D51BF2140067C807F013F
:100633007F121209DB7EA1D05CB004780320D5C100
:100643007CB00478075002B2D5020A2092D5BE804E
:10065300FF68F67CB89CB06C00602AB418057C4136
:100663000209F450FB80032F00047C9B5E90077803
:10067300F630E4067C437D106D0030E3087C437C58
:10068300327C210A0030F5199F10780E22020A1DD0
:100693001B8068F92F1150020B707CB530E7F18095
:1006A3001B2D317CB5A5397C5B50110B807803027F
:1006B3000A201E341350034E60801A2B0209F45D86
:1006C30022680D5D0078122D220B4068099F1122CC
:1006D3002D000B0078F9020A181209DB5C800B80ED
:1006E3006808248150072CB0500A020A202CB0401D
:1006F30003020A1D7C8B5D1178267CB17CA5BE109C
:1007030080680A5D33780DA5BD80057F10020A0A53
:100713006D0080307F017C5B7CB17CA5AD128024B1
:100723005D337806A5BD80F080E1CA887D41AD4385
:100733007CB17CA5AD122D1450020B047C5BAD2360
:100743002F01DA88A42D05BE008040060B807804B3
:1007530080982F007C437C507C617C720209F4BE3C
:1007630024FFFF6806BE04FFFF7803020A1812097C
:10077300DB5CB00468F57CB8A54868EF7CB870030F
:100783009F1122A5B80003020A202E008150079C66
:10079300803807020A1D9C8050ED0A51C2E74D5173
:1007A3007803020A0A7E5400807E901A6C00800649
:1007B3001B9068142F11BF1040049F104CAB0330E3
:1007C300E7EECAA86CAA80E8DA39DA587C4ABE5048
:1007D30080500A1B8068BC2F1150020B700209F471
:1007E30074F86CAA6E40806E0080BEB0FF68277CF0
:1007F300837C975C3B5C7BBF10682AF4400D7C389C
:100803002D15F45C3B500F0B04800B7C792D35F4D4
:100813005C7B50020B24BF10680B7CB020E7067C86
:10082300B420E701B3227EA020800C7EA0108005B7
:100833007EA0086C556D333392D5500A6E34FFFF9A
:100843006E24FFFF0B1CA5EC3340062F11D5F0F6E9
:10085300227CBA247EA2D5137C767C65A5CC92E754
:100863007C5B227CB5337CB43392D54E508024819B
:1008730040039F11227C457C567C676C7724E050B3
:100883000E7E1CFFFF221E341E2450034E60800484
:1008930078F430D50A6E34FFFF6E24FFFF0B1C2261
:1008A3003A70FA83BCAAE9E43E81E0F8BF9DE9E629
:1008B3003F80000039283C1ABB9969663DA335E3A4
:1008C300BF255DE73FC90FDB418DDBCCC44936EE65
:1008D30045C9913FC5B0F83D3F800000C317F534CB
:1008E300452FFA73C60AFDDD12097A04A2E192F7D5
:1008F3007DE51420E01C7E9408A37E8400FF74042D
:10090300120A2C802112097A30E1046EE48000205F
:10091300E0E47F617E9408B77E8400FF7404120ACA
:100923002C7F061206C27D5E5D2268055EA0806C88
:100933004A2212097ACAB87F617E9408DB7E84005A
:10094300FF7403120A2C7F061206C27F067F617FA3
:10095300107E9408CB7E8400FF7403120A2CDAB84D
:1009630030E00B7F061207627D5EB2F780BA7F012B
:100973007F1612076280AF7DE25E407FBE244F0088
:1009830040051BFD020A187E14F9837E043E2212E1
:1009930006C2BE243F80400E7F011208661208295A
:1009A3006E408012060AE45D2268242E240180BE74
:1009B300243F80401A7F011208667CB704C2E07CA2
:1009C3004BCAB81208336E408012060ADAB8035DC8
:1009D3002268049E240080222D0092D50E104E1012
:1009E300807D422D445002B2D54E50806C447CB879
:1009F300222C4450120B1C7E40005E507FBE180018
:100A03000078040B806816A2D57CB8137C4B7CB5A8
:100A130092E77C5B227E1CFFFF229F11227E24FF34
:100A23008020D5026C456D3322CAB87F011206C2FD
:100A3300DAB87F510B4A20693400020B4E7F05CA96
:100A4300B81206C20B4A00691400020B4E12060AC2
:100A5300DAB81478E822C2D57CB430E708B2D56E90
:100A630024FFFF0B247CB630E712B2D56E34FFFFB0
:100A73000B348D326E24FFFF0B2480028D3230D570
:100A8300066E34FFFF0B34227D51AD037D027D21C1
:100A9300AD052D12AD352D21226D0074104D00785A
:100AA3000B4D2278278D317D126D22227D437D32BD
:100AB3006D222F112D445002A50FBF1040049F102B
:100AC3000B901478ED7F016D227D34227D417D13DF
:100AD3008D247D022F004004BD0440049D040B14AB
:100AE3001478F17D237D317D106D00221240A51213
:100AF3002A97C2001243861242FC6D337A370529C6
:100B0300E47AB305277E3400C81225F17003020D81
:100B13002EC2877E1451007E0400FF1245937E345B
:100B2300C200E47E50101239D8C200124386E46C2E
:100B3300777E1450FA7E0400FF7E60106C55123AE3
:100B4300D1E47E70037E1450EA7E0400FF7E6010C1
:100B53006C55123AD11242FC7E7305277A7305282D
:100B63007E3427107E080527123F0E7E3475307EB3
:100B73000805291242CCC200124386E46C777E1426
:100B830050FA7E0400FF7E60107E5001123AD17E3F
:100B9300B305276029E47E70047E1450E17E0400CF
:100BA300FF7E60106C55123AD1D20074557E7014DA
:100BB3007E607C7E503B7E40087E30018026E47E52
:100BC30070047E1450D77E0400FF7E60106C5512B3
:100BD3003AD1D20074557E70147E607C7E503B7E89
:100BE30040086C33120F2E1242FCE47E70067E1412
:100BF30050D27E0400FF7E60106C55123AD1742DE2
:100C03007E70067E1705296D007E6001020D20129D
:100C13003FDF7E3427107E0805281234B97E730522
:100C230027BE7305287803020CB7C2001243867EE1
:100C33007305287A7305277EB3052760497E3475CB
:100C4300307E0805291200467E3705290B347A3792
:100C530005297E3475307E0805291242CCE47E7066
:100C6300047E1450E17E0400FF7E60106C55123A3E
:100C7300D1D20074557E70147E607C7E503B7E40E2
:100C8300087E3001802BC200124386E47E70047E0E
:100C93001450D77E0400FF7E60106C55123AD1D2F7
:100CA3000074557E70147E607C7E503B7E40086CE1
:100CB30033120F2E7E3475307E080529120046E468
:100CC3007E70067E1450D27E0400FF7E60106C5549
:100CD300123AD1742D7E70067E1705296D007E6051
:100CE300017E50106C4412328CE46C777E1450FAFF
:100CF3007E0400FF7E60107E5001123AD1E47E70C4
:100D0300027E1450CC7E0400FF7E60106C55123AB4
:100D1300D1742D7E70027E0800107E60037E501019
:100D23006C4412328C1242FC020C127E1450A97EC7
:100D33000400FF1245937E34C20074017E501012EA
:100D430039D8C200124386E46C777E1450A27E0425
:100D530000FF7E60106C55123AD1E47E70037E145E
:100D630050947E0400FF7E60106C55123AD11242FB
:100D7300FC7401800F74107E3427106D227E0801ED
:100D83002C122C527AB3052B7EB3052B70E774011A
:100D9300800F74107E3475306D227E08012C122D65
:100DA300247AB3052B7EB3052B70E7800312402210
:100DB3007E18012C7A1F052F74107E3427107E2491
:100DC30000017E080527121B5A70E280031240229D
:100DD3007E18012C7A1F052F74107E3475307E2403
:100DE30000017E0805291212B670E2C20012438682
:100DF300E46C777E1450A27E0400FF7E60107E5068
:100E030001123AD1E47E70027E14508E7E0400FFFC
:100E13007E60106C55123AD1742D7E70027E0800EC
:100E2300107E60037E50106C4412328C7EB3052713
:100E33006029E47E70047E1450E17E0400FF7E602E
:100E4300106C55123AD1D20074557E70147E607CBA
:100E53007E503B7E40087E30018026E47E70047E17
:100E63001450D77E0400FF7E60106C55123AD1D225
:100E73000074557E70147E607C7E503B7E40086C0F
:100E830033120F2EE47E70067E1450D27E0400FFD0
:100E93007E60106C55123AD1742A7E70067E170557
:100EA300296D007E60037E50106C4412328C124216
:100EB300FC7E34005A1225F17003020DB380031235
:100EC30040227E18012C7A1F052F74107E342710C0
:100ED3007E2400017E080527121B5A70E27EB305AB
:100EE3002770057E700180026C777A730527800373
:100EF30012402274107E3427107EA305270A2A7E0F
:100F030008012C122C5270E880031240227E180133
:100F13002C7A1F052F74107E3475307E2400017ED9
:100F23000805291212B670E2020DB3CA3B7CE37CBA
:100F3300F47CA57C567C47BC5B280A0A3B7A3705C0
:100F4300300A3580080A457A4705300A3B7A370567
:100F530034BCA4280A0A347A3705320A3A80080ACC
:100F63003A7A3705320A347A3705367E5705349E86
:100F73005705300A3B1E340A2FBD2318107E370550
:100F8300369E3705320A371E34BD23081D7E3705CA
:100F9300369E3705327CA7BCB750040A3B80020A51
:100FA3003A7E240002120A597CF76D660A3F7A37AB
:100FB300052C0A273E247E3400039D327A37052E02
:100FC3004CEE680302117F0210DDA20092020A3F79
:100FD3007D532E5705309D562E3705329E37052CEF
:100FE30012380FA20092020A3F7D532E5705309EFE
:100FF30057052C2E3705329D3612380FA200920268
:101003000A3F7E5705349D532D562E3705329E37A2
:10101300052C12380FA20092020A3F7E5705349D19
:10102300532E57052C2E3705329D3612380FA2004A
:1010330092020A2F7D522E5705309D567E37053674
:101043009D322E37052C12380FA20092020A2F7DF3
:10105300522E5705309E57052C7E3705369D322D6F
:101063003612380FA20092020A2F7E5705349D5282
:101073002D567E3705369D322E37052C12380FA29A
:101083000092020A2F7E5705349D522E57052C7E5F
:101093003705369D322D3612380F7E37052EBE3476
:1010A300000058147D363E343E342E3400062E376D
:1010B300052E7A37052E80207D369E37052C3E344B
:1010C3003E342E34000A2E37052E7A37052E7E370E
:1010D300052C1B347A37052C0B647E37052CBD3663
:1010E3004803020FCDA20092010A0F7D502E57052F
:1010F300300B547E2705327C757E1705349D101BFB
:10110300147C637E40011227DCA20092010A0F7D4A
:10111300502E5705300B547E2705367C757E1705F8
:10112300349D101B147C637E40011227DCA20092C5
:10113300017E3705307C677CB70A1F7D012E0705CA
:10114300320B047C717E2705369D211B247E4001D2
:101153001227DCA20092017E3705347C677CB70A34
:101163001F7D012E0705320B047C717E2705369DFA
:10117300211B247E40011227DC0212B3BEE001686A
:10118300030212B3021276A20092010A0F7D502EBF
:101193005705309D567D202E2705329E27052C7C32
:1011A300757E1705349D102D167C637E4001122732
:1011B300DCA20092010A0F7D502E5705309E570581
:1011C3002C7D202E2705329D267C757E1705349DA8
:1011D300102E17052C7C637E40011227DCA200929F
:1011E300010A0F7D502E5705309D567E2705369DEB
:1011F300202E27052C7C757E1705349D102D167C1B
:10120300637E40011227DCA20092010A0F7D502E5B
:101213005705309E57052C7E2705369D202D267CAD
:10122300757E1705349D102E17052C7C637E4001B7
:101233001227DC7E37052EBE34000058147D363E5F
:10124300343E342E3400062E37052E7A37052E8091
:10125300207D369E37052C3E343E342E34000A2E34
:1012630037052E7A37052E7E37052C1B347A370542
:101273002C0B647E37052CBD36480302118A0A6F96
:101283002E6705320B64801AA20092017E57053047
:101293007C7D7E2705347C657C577E40011227DCEC
:1012A3000B640A2F7E3705369D321B34BD3658D862
:1012B300DA3B22CA3B7F307A27052D7D237AB3059B
:1012C3002C7E37052DBE34007D2805740F02143C97
:1012D3007EB3052C900B6DF07403900B6EF00A54E3
:1012E300900B6FF07CB5900B70F07E37052D0A568E
:1012F300900B71F07E57052D900B72F07E340B6DC1
:1013030074061241CA7A37053A7CB7900B73F07EA4
:1013130037053A0A56900B74F07E140B6D7E040069
:1013230001740812448474017AB3053412008E7A6E
:101333001F053C12008E7E2F053C7F019F027E1FFE
:10134300052FBF01280B74017AB30535E47AB30581
:1013530034A206E433B40102800302142FE47AB307
:1013630005351246567E2400017A1F053612465B68
:101373007E1F05361241CA7A37053A4D3368067423
:10138300597AB305357E0F05367E0B70BE73052C77
:10139300680674607AB3053529B00001BEB00368EE
:1013A3000674617AB305357E37052D3E347C672993
:1013B300700002BC76680674627AB305357EB305A5
:1013C300357066E480447EB305337E7002ACB77E2D
:1013D3001F05362D35297100037C276C337F132DB0
:1013E300351B1A107EB305337E7002ACB77E1F0522
:1013F300362D35297100040A277F032D150B0A307A
:101403004D321B0A307EB30533047AB305337E1F96
:101413000536297100020A271E247E7305330A3715
:10142300BD3248A2E47AB305341246447EB3053490
:1014330060030213367EB30535DA3B22CA3B7F7065
:101443007D027D237C3BBE0407B02805740F021583
:10145300BA900B6D7AEB30740F900B6EF00A5490C8
:101463000B6FF07CB5900B70F00A50900B71F07C11
:10147300B1900B72F07D105E14000768067E1400B5
:101483000180026D117D501E541E541E542D519027
:101493000B73F06CAA80160A1A7F172D317E1BB0CE
:1014A3002E140B747A31827A2183F00BA0900B7384
:1014B300E0BCBA38E27D105E140007682E7CB1549C
:1014C300077E3400FF60053E341478FB7CA76EA0D2
:1014D300FF900B73E00A3B2E340B737A71827A61AF
:1014E30083E05CBA7A71827A6183F07E340B6D900B
:1014F3000B73E024071241CA900B73E00A2B2E24CE
:101503000B747A51827A41837AEB707CA6900B73C9
:10151300E00A3B2E340B757A71827A61837AEBA0F1
:101523007E140B6D7E040001900B73E00A5B2E5456
:101533000009124484900B6DE0607374017AB30563
:101543008B12008E7F3112008E7F019F037E1F0559
:1015530087BF01280B74017AB3058CE47AB3058B3A
:10156300A206E433B4013FE47AB3058C124656CAAB
:101573003912465BDA391241CA4D33782012465686
:101583007D237E340B6D123400700474018001E4FA
:101593007AB3058C700DE47AB3058B800674F07A08
:1015A300B3058C1246447EB3058B709A8005E47AAA
:1015B300B3058C7EB3058CDA3B22CA3B7C5B7D731F
:1015C300BE5008500574910217247D370B367A718B
:1015D300827A6183E07C6B6C777D272E2400057A09
:1015E30051827A4183E00A2B2D237A27052D2E245D
:1015F30000071E241E241E247D372E3400067A7114
:10160300827A6183E00A3BBD236805749302172441
:101613007E37052D4D33680A7E37052DBE340064B1
:10162300280574930217247D370B357A71827A610A
:1016330083E07C6B6C777D272E2400037A51827ABA
:101643004183E00A6B2D63BE6427744005749202E4
:101653001724BE642710500574920217249E642732
:10166300107D361E341E341E347A37052F5E640017
:1016730007E480447EA3052C7CBA54077AB3053172
:101683007D161E141E141E142E17052F2E140C6DFA
:101693007E0400017D365E3400077CB70A3A1E34AF
:1016A3001E341E342D372E3400077E240001123CD5
:1016B300D20B647EB3052C047AB3052C7E73052C00
:1016C3000A37BE37052D40AC7AF1827AE183E060B8
:1016D3004FE47AB3052C7E73052C0A377D232D271F
:1016E3007A51827A4183E02E340B6D7A71827A616A
:1016F30083F07EB3052C047AB3052CB406D87E346C
:101703000B6D74061241CA7CB7900B73F00A5690A6
:101713000B74F07E140B6D7E040001740812448474
:10172300E4DA3B22CA3B7C5B7D13BE50066805743A
:101733009102188D7D010B067A11827A0183E00AEA
:101743007B0A3E7D212E2400057A51827A4183E073
:101753000A0B2D30BE3400322805749302188D7D98
:10176300310B357A71827A6183E07C6B6C777D21F2
:101773002E2400037A51827A4183E00A6B2D637C25
:10178300EF6CFF2D70BE6427104006BE64277428DB
:1017930005749202188D7A31827A2183E0700302F4
:1017A300188C7EB305C2900B6DF07401900B6EF034
:1017B3007D572E5400071E541E541E54900B6FF079
:1017C3009E6427107D361E341E341E347A37052D51
:1017D3005E640007E4805E7E73052C0A377D235E1A
:1017E3002400077812E41E341E341E342E340B708A
:1017F3007A71827A6183F07D365E3400077A7305ED
:10180300317EB3052C0A1B1E141E141E142E140B3A
:10181300707E04000154077D361E341E341E342EA0
:1018230037052D2E340C6D7E240001123CD20B643F
:101833007EB3052C047AB3052C7E73052C0A37BDC1
:101843003740947E340B6D900B6FE024031241CA32
:10185300900B6FE00A2B2E240B707A51827A41830E
:101863007AEB707CA6900B6FE00A3B2E340B717AF7
:1018730071827A61837AEBA07E140B6D7E04000182
:10188300900B6FE02405124484E4DA3B22CA3B7CCC
:101893005B7D13BE5006680574910219F67D010B3A
:1018A300067A11827A0183E00A7B0A3E7D212E2487
:1018B30000057A51827A4183E00A0B2D30BE340051
:1018C30032280574930219F67D310B357A71827AC9
:1018D3006183E07C6B6C777D212E2400037A518237
:1018E3007A4183E00A6B2D637CEF6CFF2D70BE643D
:1018F30000004006BE640064280574920219F67A5B
:1019030031827A2183E070030219F57EB305C29018
:101913000B6DF07401900B6EF07D572E5400071E73
:10192300541E541E54900B6FF09E6427107D361E78
:10193300341E341E347A37052D5E640007E4805E5E
:101943007E73052C0A377D235E2400077812E41E7C
:10195300341E341E342E340B707A71827A6183F014
:101963007D365E3400077A7305317EB3052C0A1B7E
:101973001E141E141E142E140B707E040001540733
:101983007D361E341E341E342E37052D2E340B6047
:101993007E240001123CD20B647EB3052C047AB37F
:1019A300052C7E73052C0A37BD3740947E340B6DAE
:1019B300900B6FE024031241CA900B6FE00A2B2EA9
:1019C300240B707A51827A41837AEB707CA6900B58
:1019D3006FE00A3B2E340B717A71827A61837AEB62
:1019E300A07E140B6D7E040001900B6FE0240512A2
:1019F3004484E4DA3B22CA3B7F307A2700097D2303
:101A03007AB300087E370009BE3407D02805740F67
:101A1300021B577EB30008900B6DF07402900B6E9F
:101A2300F00A54900B6FF07CB5900B70F07E37008A
:101A3300090A56900B71F07E570009900B72F07EE5
:101A4300340B6D74061241CA7A3700167CB7900BBB
:101A530073F07E3700160A56900B74F07E140B6DEC
:101A63007E040001740812448474017AB3001012D6
:101A7300008E7A1F001812008E7E2F00187F019FA0
:101A8300027E1F000BBF01280B74017AB30011E41F
:101A93007AB30010A206E433B401028003021B4AA6
:101AA300E47AB300111246567E2400017A1F001215
:101AB30012465B7E1F00121241CA7A3700164D335D
:101AC300680674597AB300117E0F00127E0B70BE44
:101AD300730008680674607AB3001129B00001BE70
:101AE300B002680674617AB300117E3700092E34A0
:101AF30000071E341E341E347C6729700002BC7636
:101B0300680674627AB300117EB300117036E48004
:101B13001C7E73000F0A377E0F00122D132930002D
:101B2300032D377D267A1B307EB3000F047AB30072
:101B33000F7E1F001229710002BE73000F38D2E41A
:101B43007AB300101246447EB300106003021A7980
:101B53007EB30011DA3B22CA3B7F307A27052D7D05
:101B6300237AB3052C7E37052DBE3407D0280574A0
:101B73000F021CAC7EB3052C900B6DF07401900B1F
:101B83006EF00A54900B6FF07CB5900B70F07E37BB
:101B9300052D0A56900B71F07E57052D900B72F0B0
:101BA3007E340B6D74061241CA7CB7900B73F00A36
:101BB30056900B74F07E140B6D7E040001740812B2
:101BC300448474017AB3053412008E7A1F053A12E5
:101BD300008E7E2F053A7F019F027E1F052FBF01D6
:101BE300280B74017AB30535E47AB30534A206E40D
:101BF30033B401028003021C9FE47AB30535124615
:101C0300567E2400017A1F053612465B7E1F053679
:101C13001241CA4D33680674597AB305357E0F05F0
:101C2300367E0B70BE73052C680674607AB3053577
:101C330029B00001BEB001680674617AB305357E30
:101C430027052D2E2400071E241E241E2429700080
:101C5300020A37BD32680674627AB305357EB3056E
:101C6300357036E4801C7E7305330A377E0F0536E4
:101C73002D13293000032D377D267A1B307EB305C3
:101C830033047AB305337E1F053629710002BE7310
:101C9300053338D2E47AB305341246447EB30534AF
:101CA3006003021BD27EB30535DA3B22CA3B7CE4D8
:101CB3007A5305CC7CF67CD77CCBE4900D82F09EE6
:101CC300F020BEC07F28086CCC0A3D0B357CD77E44
:101CD300B305CCB410028003021D907CBC7C7D1242
:101CE30043AFE4900D82F04CEE781A7E7010AC7F17
:101CF300900D82E00A2B2D322E3404A87A71827A59
:101D03006183E0801A7E7010AC7F900D82E00A2B15
:101D13002D322E3404A87A71827A6183E064FF7EC7
:101D23007001120003900D82E004F0900D82E0B484
:101D330008B57CBC7C7D0B701243AFE4900D82F040
:101D43004CEE781A7E7010AC7F900D82E00A2B2D3A
:101D5300322E3404B07A71827A6183E0801A7E7005
:101D630010AC7F900D82E00A2B2D322E3404B07A12
:101D730071827A6183E064FF7E7001120003900D2B
:101D830082E004F0900D82E0B408B5805E7EB30576
:101D9300CCB406577CBC7C7D1243AFE4900D82F03B
:101DA3004CEE781A7E7006AC7F900D82E00A2B2DE4
:101DB300322E3400007A71827A6183E0801A7E7059
:101DC30006AC7F900D82E00A2B2D322E3400007A70
:101DD30071827A6183E064FF7E7001120003900DCB
:101DE30082E004F0900D82E0B406B5DA3B22CA3BF0
:101DF3007D727D23BE74007B2805740F021F2E9015
:101E03000B6DF07410900B6EF00A54900B6FF07C16
:101E1300B5900B70F00A5E900B71F07CBF900B7263
:101E2300F07D573E54900B73F06C7780327E5002F6
:101E3300AC577F202D520B2A500A5A2E240B747A4A
:101E430051827A4183F07E5002AC577F202D520B92
:101E53002A502E240B757A51827A4183F00B700A33
:101E630027BD2740C87E340B6D7D573E542E54004A
:101E7300071241CA7CB77D273E242E240B747A5166
:101E8300827A4183F00A567D373E342E340B757ABD
:101E930071827A6183F07E140B6D7E0400017D579D
:101EA3003E542E540009124484900B6DE060737409
:101EB300017AB3059112008E7F3112008E7F019F4C
:101EC300037E1F058DBF01280B74017AB30592E4CD
:101ED3007AB30591A206E433B4013FE47AB30592E1
:101EE300124656CA3912465BDA391241CA4D337863
:101EF300201246567D237E340B6D12340070047419
:101F0300018001E47AB30592700DE47AB305918000
:101F13000674F07AB305921246447EB30591709A23
:101F23008005E47AB305927EB30592DA3B227CAB5B
:101F33007D137A31827A21837EEB604C66780302CB
:101F43002068BEA00668037491227D010B067A11F6
:101F5300827A0183E060037493227D012E040005DD
:101F63007A11827A01837EEBA04CAA6805BEA03267
:101F730028037493227D010B057A11827A0183E091
:101F83007C0B6C112E1400037A31827A2183E00AD0
:101F93002B2D207C7A0A1A2D12BE144E522803745C
:101FA3009222BE244E2050037492224C6678030280
:101FB30020687EB305C2900B6DF07404900B6EF035
:101FC3007402ACB7900B6FF09E244E206C667EA01B
:101FD3000380487D123E142E140AFC7A31827A2142
:101FE300830BEA100A127CB30A4A2E440B6D7A91D2
:101FF300827A8183F07D123E142E140AFC7A318298
:102003007A21830BEA107CB30A4A2E440B6E7A9131
:10201300827A8183F00B240BA10B60BC7638B47EEB
:10202300340B6D900B6FE024031241CA900B6FE0E9
:102033000A2B2E240B707A51827A41837AEB707CBF
:10204300A6900B6FE00A3B2E340B717A71827A6192
:10205300837AEBA07E140B6D7E040001900B6FE07E
:102063002405124484E422CAF87CAB7D43BEA00954
:102073005005749102219B7D340B367A71827A610B
:1020830083E070277D342E3400057A71827A618370
:102093007EEB607E1002AC167D142E1400067A319E
:1020A300827A2183E00A1BBD016805749202219B99
:1020B3004C666805BE60322805749202219B7D043C
:1020C3000B057A11827A0183E07C0B6C117D242E3F
:1020D3002400037A51827A4183E00A2B2D207C76F7
:1020E3000A072D02BE0475622805749302219BBE64
:1020F3002475305005749302219B2E1400070A5A4D
:10210300BD156805749102219B9E2475306CFF7E7A
:10211300600780330A162D147A31827A2183E07C9A
:102123000B6C110B147A31827A2183E00A1B2D1078
:102133007D523E542E540AFC7AB1827AA1831BEA63
:10214300100B240B610BF0BC7F38C97A91827A8122
:1021530083E060436CFF0A3F7D232D247A51827A0A
:102163004183E02E340B6D7A71827A6183F00BF038
:10217300BEF00678E17E340B6D74061241CA7CB75B
:10218300900B73F00A56900B74F07E140B6D7E0463
:1021930000017408124484E4DAF8227CAB7D037AEC
:1021A30011827A0183E070030222CABEA00668038B
:1021B3007491227D100B167A31827A2183E06003B9
:1021C3007493227D102E1400057A31827A21837E46
:1021D300EB604C666805BE603228037493227D1061
:1021E3000B157A31827A2183E07C2B6C332E040029
:1021F300037A11827A0183E00A2B2D217C760A1659
:102203002D12BE1475622803749222BE24753050B9
:10221300037492227EB305C2900B6DF07403900B8E
:102223006EF07402ACB7900B6FF09E2475306C6641
:102233007EA00380487D123E142E140AFC7A31825C
:102243007A21830BEA100A127CB30A4A2E440B6DDF
:102253007A91827A8183F07D123E142E140AFC7ADD
:1022630031827A21830BEA107CB30A4A2E440B6E27
:102273007A91827A8183F00B240BA10B60BC7638B0
:10228300B47E340B6D900B6FE024031241CA900BA4
:102293006FE00A2B2E240B707A51827A41837AEBFA
:1022A300707CA6900B6FE00A3B2E340B717A71821F
:1022B3007A61837AEBA07E140B6D7E040001900B90
:1022C3006FE02405124484E422CA797CF47CE57C23
:1022D300A67C977C8B9EA020BE807F28086C880AF2
:1022E300290B257C95BEE010680302238E6C774C86
:1022F300FF78187E5010AC5A0A172D212E2404A8FB
:102303007A51827A41837EEB6080197E5010AC5AF9
:102313000A172D212E2404A87A51827A4183E07C66
:102323006B6E60FF7E5080AC590A070A182D102D82
:1023330021196200230B70A5BF08B46C774CFF789A
:10234300187E5010AC5A0A172D212E2404B07A514E
:10235300827A41837EEB6080197E5010AC5A0A1753
:102363002D212E2404B07A51827A4183E07C6B6E56
:1023730060FF7E5080AC590A070A182D102D2119D1
:102383006200A30B70A5BF08B48053BEE006784E6D
:102393006C774CFF78187E5006AC5A0A172D212E05
:1023A3002400007A51827A41837EEB6080197E504B
:1023B30006AC5A0A172D212E2400007A51827A4145
:1023C30083E07C6B6E60FF7E5080AC590A070A186D
:1023D3002D102D21196200230B70A5BF06B4DA79E5
:1023E300227C5B7D43BE500668037491227D540BAF
:1023F300567AB1827AA1837EEB40A5BCFF0F7D5450
:102403002E5400057AB1827AA183E060074C4468B8
:10241300037493227D540B557AB1827AA183E07CB5
:102423002B6C337D042E0400037A11827A0183E03E
:102433000A3B2D31BE3427744003749222BE3427E5
:102443001050037492229E3427107D531E541E5441
:102453001E547CAB5E3400077C57A5BCFF207E3442
:1024630000017CB560053E341478FB7C470A3A2EA4
:10247300340C6D7A71827A6183E04CB480217E34AE
:1024830000017CB560053E341478FB7C576E50FF29
:102493000A3A2E340C6D7A71827A6183E05CB57AE4
:1024A30071827A6183F07A91827A8183E060436CEE
:1024B300AA0A3A2D347A71827A6183E00A3A2E3479
:1024C3000B6D7A71827A6183F00BA0BEA00678E16E
:1024D3007E340B6D74061241CA7CB7900B73F00AFD
:1024E30056900B74F07E140B6D7E04000174081279
:1024F3004484E422CA3B7CA67CF77CEB6D660A36F7
:102503007A3705AC0A2A3E247E3400039D327A379B
:1025130005AE0225E3A21492020A5E2D560A3F2E4F
:102523003705AC12380FA21492020A5E9D560A3F79
:102533002E3705AC12380FA21492020A5E9D560A7A
:102543003F9E3705AC12380FA21492020A5E2D5635
:102553000A3F9E3705AC12380FA21492020A5E2E70
:102563005705AC0A3F2D3612380FA21492020A5EA9
:102573009E5705AC0A3F2D3612380FA21492020A59
:102583005E9E5705AC0A3F9D3612380FA214920285
:102593000A5E2E5705AC0A3F9D3612380F0B647E38
:1025A3003705AEBE34000058147D363E343E342E1B
:1025B3003400062E3705AE7A3705AE80207D369E71
:1025C3003705AC3E343E342E34000A2E3705AE7A3E
:1025D3003705AE7E3705AC1B347A3705AC1242FCA7
:1025E3007E3705ACBD364803022518DA3B22CA3BC9
:1025F3007D736D66E47AB3052DD2B2D2B6D2B77EBF
:1026030034000A12457FBD7650030226E0A2B2E4ED
:10261300337AB3052C7E73052CBE7001500474010C
:102623008028A2B7E4337AB3052C7E73052CBE70E1
:1026330001500474028013A2B6E4337AB3052C7EEE
:1026430073052CBE7001500874037AB3052D800BFB
:10265300BD7638030226E00B6480A47EB3052D1BF0
:10266300B1682D1468500BB178957E34000A124579
:102673007FA2B2E4337AB3052C7E73052CBE7001BE
:102683004003022602BD7638030226020B6480CB88
:102693007E34000A12457FA2B7E4337AB3052C7E59
:1026A30073052CBE70014003022602BD7638030277
:1026B30026020B6480A57E34000A12457FA2B6E48D
:1026C300337AB3052C7E73052CBE700140030226BA
:1026D30002BD7638030226020B6402265E75900063
:1026E3007EB3052DDA3B22CAD8CA797CD67CF77C27
:1026F300EB6D337A3705A40A3D7A3705A60227CA5C
:10270300A21292020A5E2E5705A40A3F2E3705A68F
:1027130012380FA21292020A5E9E5705A40A3F2E98
:102723003705A612380FA21292020A5E9E5705A41D
:102733000A3F9E3705A612380FA21292020A5E2E96
:102743005705A40A3F9E3705A612380FA21292021C
:102753000A5E2E5705A60A3F2E3705A412380FA28C
:102763001292020A5E9E5705A60A3F2E3705A4124F
:10277300380FA21292020A5E9E5705A60A3F9E37A1
:1027830005A412380FA21292020A5E2E5705A60A5A
:102793003F9E3705A412380F7E3705A40B347A37D2
:1027A30005A47E3705A67D53AD537E0705A47D1092
:1027B300AD107D212D257CBDACBBBD2508061B348A
:1027C3007A3705A61242FC7E3705A6BE3705A44814
:1027D30003022703DA79DAD822CA3B7CF47CC57A70
:1027E3006305387CE77CDB0A2B7E7305380A379D4B
:1027F300321246137A7305390A2E0A3C9D32124669
:1028030013BE730539380A7E6305397A63053A8046
:10281300047A73053A0A3D7E5305380A259D237CC5
:10282300B412082E7F617E43053AE41208337F71A8
:102833007F167F071207627A1F053B0A3E0A2C9D0B
:10284300237CB412082E7F071207627A1F053F7C90
:102853004DE41208336DFF7EE43F007F0712060A42
:102863007A1F05437C4EE41208337F0712060A7A67
:102873001F05476CEE80490A2F0A3E120A594D2262
:102883006805BEE0017819A20192027E1F0543127A
:102893000866CA787E1F0547120866DAB812380F31
:1028A3007E0F053B7E1F054312060A7A1F05437EF2
:1028B3000F053F7E1F054712060A7A1F05470BE0E7
:1028C3007E73053ABC7E50AFDA3B22CA3B7CA67CC2
:1028D300F77CEB6D660A367A3705B00A2A3E247E0A
:1028E3003400039D327A3705B20229A6A21592015C
:1028F3000A1E7D512D560A2F2E2705B07C759D1675
:102903007C637E40011227DCA21592010A1E7D51D1
:102913009D560A2F9E2705B07C752D167C637E403D
:10292300011227DCA21592010A1E7D512E5705B014
:102933000A2F2D267C759E1705B07C637E400112FD
:1029430027DCA21592010A1E7D519E5705B00A2F5E
:102953009D267C752E1705B07C637E40011227DC13
:102963000B647E3705B2BE34000058147D363E3406
:102973003E342E3400062E3705B27A3705B2802056
:102983007D369E3705B03E343E342E34000A2E3752
:1029930005B27A3705B27E3705B01B347A3705B0F6
:1029A3001242FC7E3705B0BD3648030228EFDA3BFE
:1029B30022CA3B7CE57CF67CD77CCB1243AFE49008
:1029C3000D84F04CEE78247E5002AC5F3E243E240E
:1029D3003E243E243E24900D84E00A3B2D322E34C7
:1029E30002A87A71827A6183E080247E5002AC5F10
:1029F3003E243E243E243E243E24900D84E00A3BA4
:102A03002D322E3402A87A71827A6183E064FF7ECC
:102A13007001120003900D84E004F0900D84E0B483
:102A230010A17CBC7C7D0B701243AFE4900D84F04D
:102A33004CEE78247E5002AC5F3E243E243E243E7E
:102A4300243E24900D84E00A3B2D322E3402C87AB2
:102A530071827A6183E080247E5002AC5F3E243E23
:102A6300243E243E243E24900D84E00A3B2D322E46
:102A73003402C87A71827A6183E064FF7E70011246
:102A83000003900D84E004F0900D84E0BEB010408C
:102A93009FDA3B2212441C7E3400641245137E34B9
:102AA30000C812451374AE6C7712000374206C7760
:102AB30012000374026C77120003E46C77120003B4
:102AC30074106C7712000374406C7712000374B0B7
:102AD3006C7712000374816C7712000374FF6C77B8
:102AE30012000374A46C7712000374A66C771200AF
:102AF3000374A16C7712000374C86C77120003741B
:102B0300A86C77120003743F6C7712000374D36CC4
:102B130077120003E46C7712000374D56C7712000C
:102B23000374C06C7712000374D96C7712000374BA
:102B3300F16C7712000374DA6C7712000374126C71
:102B43007712000374DB6C7712000374306C771216
:102B53000003748D6C7712000374146C77120003F6
:102B630074AF6C77120003C200124386E46C7712D1
:102B730043AF024555CAD8CA797CD67CF77CEB6D46
:102B8300337A3705A80A3D7A3705AA022C40A213E7
:102B930092010A1E7D512E5705A80A2F2E2705AA3A
:102BA3007C759E1705A87C637E40011227DCA21367
:102BB30092010A1E7D519E5705A80A2F9E2705AA3A
:102BC3007C752E1705A87C637E40011227DCA213B7
:102BD30092010A1E7D512E5705AA0A2F2E2705A8FA
:102BE3007C759E1705AA7C637E40011227DCA21325
:102BF30092010A1E7D519E5705AA0A2F9E2705A8FA
:102C03007C752E1705AA7C637E40011227DC7E3774
:102C130005A80B347A3705A87E3705AA7D53AD5333
:102C23007E0705A87D10AD107D212D257CBDACBB95
:102C3300BD2508061B347A3705AA1242FC7E3705E8
:102C4300AABE3705A84803022B91DA79DAD822CA3B
:102C53003B7F307D437C3B4D2268067E24FF008012
:102C6300026D22900B6D7AEB307405900B6EF00AB7
:102C730058900B6FF07CB9900B70F00A54900B7165
:102C8300F07CB5900B72F07E340B6D74061241CA62
:102C93007CB7900B73F00A56900B74F07E140B6D97
:102CA3007E040001740812448474017AB3052C1263
:102CB300008E7A1F052E12008E7E0F052E9F10BFE9
:102CC30013280B74017AB3052DE47AB3052CA206FD
:102CD300E433B4013FE47AB3052D124656CA3912E0
:102CE300465BDA391241CA4D3378201246567D23AA
:102CF3007E340B6D123400700474018001E47AB3E6
:102D0300052D700DE47AB3052C800674F07AB305B3
:102D13002D1246447EB3052C709C7EB3052DDA3B01
:102D230022CA3B7F30900B6D7AEBB07406900B6E2A
:102D3300F00A56900B6FF07CB7900B70F00A54902A
:102D43000B71F07CB5900B72F07E340B6D74061230
:102D530041CA7CB7900B73F00A56900B74F07E1443
:102D63000B6D7E0400017408124484900B6DE060C7
:102D73007374017AB3052C12008E7A1F052E12008C
:102D83008E7E0F052E9F10BF13280B74017AB30597
:102D93002DE47AB3052CA206E433B4013FE47AB3FD
:102DA300052D124656CA3912465BDA391241CA4D0D
:102DB3003378201246567D237E340B6D1234007017
:102DC3000474018001E47AB3052D700DE47AB30530
:102DD3002C800674F07AB3052D1246447EB3052C7D
:102DE300709C8005E47AB3052D7EB3052DDA3B2272
:102DF300CAF87C957CA67C877CFB6C774C997822FF
:102E03007E3002AC3A3E143E143E143E143E140A85
:102E1300272D212E2402A87A51827A41837EEB60EA
:102E230080237E3002AC3A3E143E143E143E143EE0
:102E3300140A272D212E2402A87A51827A4183E095
:102E43007C6B6E60FF7E5080AC580A070A1F2D0111
:102E53002D02196000230B70A5BF10A06C774C994D
:102E630078247E1002AC1A7DF03EF43EF43EF43E2C
:102E7300F43EF40A072D0F2E0402C87A11827A0158
:102E8300837EEB6080257E1002AC1A7DF03EF43E1B
:102E9300F43EF43EF43EF40A072D0F2E0402C87AE2
:102EA30011827A0183E07C6B6E60FF0A072D012D8E
:102EB30002196000230B70BE701040A2DAF822CA18
:102EC3003B7C347CA57C567C47BC5B280A0A3B7A56
:102ED3003705930A6580080A457A4705930A6BBC50
:102EE300A4280A0A347A3705950A7A80080A3A7AB6
:102EF3003705950A74A5BB005CA20F92017E5705A6
:102F0300937E2705957C757C6D7E40011227DCA29C
:102F13000F92017E5705937C5F7C7F7C6D7E400121
:102F23001227DCA20F92017E3705937C677CB77E64
:102F33002705957C757C5F7E40011227DCA20F92EA
:102F4300017C6D7CBD7E2705957C757C5F7E400191
:102F53001227DC8030A5BB012C7E370595801CA28F
:102F63000F92017E5705937E2705977C757C6D7EB6
:102F730040011227DC7E3705970B347A370597BE5D
:102F830077059758DADA3B22CA3B6D66D2B2D2B6DE
:102F9300D2B77E34000A12457FA2B2E4337AB30576
:102FA300CB7E7305CBBE700150067E740001803268
:102FB300A2B7E4337AB305CB7E7305CBBE70015061
:102FC300067E740002801BA2B6E4337AB305CB7E7F
:102FD3007305CBBE700150067E74000380040B643E
:102FE30080B07D371B3568241B34683C0B3578A2D1
:102FF3007E34000A12457FA2B2E4337AB305CB7E56
:103003007305CBBE7001503C0B6480D67E34000A3E
:1030130012457FA2B7E4337AB305CB7E7305CBBEEB
:10302300700150200B6480BA7E34000A12457FA2DF
:10303300B6E4337AB305CB7E7305CBBE700150047F
:103043000B64809E7D37DA3B227C5B7D43BE50065A
:1030530068037491227D540B557AB1827AA183E07F
:103063007C6B6C777D242E2400037A51827A418312
:10307300E00A2B2D23BE2475622803749322BE24F9
:10308300753050037493229E2475307D340B367A49
:1030930071827A6183E07C2B6C337D342E3400059E
:1030A3007A71827A6183E00A3B2D317D523E542E40
:1030B300540AFC7AB1827AA1831BEA307A91827A2C
:1030C3008183E060436CAA0A3A2D347A71827A6173
:1030D30083E00A3A2E340B6D7A71827A6183F00BA6
:1030E300A0BEA00678E17E340B6D74061241CA7C43
:1030F300B7900B73F00A56900B74F07E140B6D7E31
:103103000400017408124484E422CA3B9F337E14F2
:10311300F5C37E0440487F131206C26D117E04433B
:10312300341207627F717A1F05836D117E0441009B
:103133007F131207627A1F057B7F171209086D112F
:103143007E0441A01206C27F717A1F057FD2026DF1
:10315300117E0442207E1F057B12060A120866CAEE
:10316300786D117E0442007F1712060A7F016D33CA
:103173007E244280120607120866DAB812380F74EA
:103183001E7E70017E603C7E5006123B487423CA4B
:10319300B87E7007CA787F131208667F017E6003CA
:1031A3007E50066C44DA78DAB81233466D117E0429
:1031B3003F807F1312060A7F316D117E0443B412E0
:1031C30007E33803023111DA3B22CA3B7A4305A2F3
:1031D3007F307A5305A17A6305A07CA77AB3059F54
:1031E3006D33900D7A1BEA307EB305A10A3B7D2334
:1031F3005E240007780C7D231E241E241E247CB528
:10320300800A1E341E341E340B347CB77AB305A1F6
:103213007AA305A380667EB3059F7E7305A312433D
:10322300AF7EB3059F900D7CF0803E7EB305A27008
:1032330016900D7A0BEA307D230B241BEA202D37E1
:103243007D267E1BB08016900D7A0BEA307D230B12
:10325300241BEA202D377D267E1BB064FF7E700180
:10326300120003900D7CE004F0900D7CE0BEB305EA
:10327300A040B87EB305A3047AB305A37E7305A16A
:10328300BE7305A33890DA3B22CA3B7A4305307AF2
:1032930053052F7A63052E7F307A73052D7AB30594
:1032A3002CE4900D80F0900D7FF0023336740A9079
:1032B3000D7F7EEB607E73052E9C761B7012443867
:1032C3007F017F13120A9E7E14000A120A9C7A332E
:1032D3000531900D80E070337E73052E0A271B2481
:1032E300900D7F7EEBA00A3ABD32581F7EB30531A5
:1032F30070137CBAC40354F82EB3052C7E73052DCA
:103303007E6020801D7401900D80F0900D7FE0C4DD
:103313000354F82EB3052C7E73052D7E6305312EE1
:1033230060307E53052F7E4305301222CC900D7FF3
:10333300E004F0900D7FE0BEB3052E50030232B0DF
:10334300DA3B22CA3B7A43059D7A53059C7A63058F
:103353009B7F307A73059A7AB30599E4900D7EF0DA
:10336300900D7DF00233F0740A900D7D7EEB607E4C
:1033730073059B9C761B701244387F017F13120ADE
:103383009E7E14000A120A9C7A33059E900D7EE0FD
:1033930070337E73059B0A271B24900D7D7EEBA063
:1033A3000A3ABD32581F7EB3059E70137CBAC4031C
:1033B30054F82EB305997E73059A7E6020801D74A0
:1033C30001900D7EF0900D7DE0C40354F82EB305FB
:1033D300997E73059A7E63059E2E60307E53059C0D
:1033E3007E43059D121CAF900D7DE004F0900D7D92
:1033F300E0BEB3059B500302336ADA3B227D437A76
:1034030051827A41837EEBA07A71827A6183E0BC38
:10341300BA6802E4227D320B347A71827A61837E48
:10342300EBA07D340B347A71827A6183E0BCBA6895
:1034330002E4227D320B357A71827A61837EEBA0BE
:103443007D340B357A71827A6183E0BCBA6802E419
:10345300227D322E3400037A71827A61837EEBA05F
:103463007D342E3400037A71827A6183E0BCBA68BA
:1034730002E4227D320B367A71827A61837EEBA07D
:103483007D340B367A71827A6183E0BCBA6802E4D8
:10349300227D522E5400057AB1827AA1837EEBA05D
:1034A3007D342E3400057A71827A6183E0BCBA6878
:1034B30002E4227401227F707D03BE042710404D75
:1034C300BE04277450477D109E1427107D515E540F
:1034D30000077E34000160053E341478FB7C671ED0
:1034E300141E141E142E140C6D7A31827A21837EDD
:1034F300EB705C767A7B707D509E5427105E54008F
:10350300077E7BA060581EA01478FB8051BE040088
:10351300004051BE040064504B7D109E1427107D63
:10352300515E5400077E34000160053E341478FB7D
:103533007C671E141E141E142E140B607A31827ABB
:1035430021837EEB705C767A7B707D509E542710CE
:103553005E5400077E7BA060051EA01478FB7A7B77
:10356300A0740122E4227C3B7D237E20FF0B347A6E
:1035730071827A6183E014BEB01040030236107E7C
:10358300A003A490358A730235BA0235C50235D03B
:103593000235DB0235E60235F1023610023610023F
:1035A300361002361002361002361002361002367A
:1035B300100235FC0236077D327CB31217277C2BB1
:1035C300804B7D327CB31218907C2B80407D327C03
:1035D300B312219E7C2B80357D327CB3121F317C4C
:1035E3002B802A7D327CB31223E47C2B801F7D3217
:1035F3007CB312304C7C2B80147D327CB31215BD0E
:103603007C2B80097D327CB312206A7C2B7CB22216
:10361300CA3B7F307AB305C57A7305C60236AE7EE0
:10362300B305C5900D81F0806F7EA305C60A2A1EDF
:10363300241E241E243E243E243E243E243E243EB7
:10364300243E24900D817EEB300A332D322D377DBD
:10365300267E1B200A420A3A7E240008120A597C5D
:10366300B57E34000160053E341478FB5D342E349E
:10367300FFFF9208E433B40118300708D2027CB389
:103683007C7A800AC202900D81E07E7305C61238EF
:103693000F900D81E02403F0900D81E0BEB08040D7
:1036A300887EB305C60BB17AB305C67E7305C6BE65
:1036B30070405003023622DA3B22CAD8CA797CF61C
:1036C3007CE77CDB9F117A1F05537E14F5C37E04D0
:1036D30040487E1F05531206C26D117E0443341207
:1036E30007627A1F05571208EB7F017C4FE412082B
:1036F300331206C27A1F054B7E1F05571209087F36
:10370300017C4FE41208331206C27F717A1F054F02
:10371300A21092027C4DE41208337E0F054B120671
:103723000A120866CA787C4EE41208337F07120631
:103733000A120866DAB812380F6D117E043F807ED4
:103743001F055312060A7A1F05536D117E0443B4F5
:103753007E1F05531207E350030236CD1242FCDAF3
:1037630079DAD822CA3B7CF57CE67CD77CCB9F11E7
:103773007A1F05637E14F5C37E0440487E1F0563EC
:103783001206C26D117E0443341207627A1F056765
:103793001208EB7F017C4EE41208331206C27A1F33
:1037A300055B7E1F05671209087F017C4FE4120841
:1037B300331206C27F717A1F055FA21192027C4CFD
:1037C300E41208337E0F055B12060A120866CA78F4
:1037D3007C4DE41208337F0712060A120866DAB832
:1037E30012380F6D117E043F807E1F056312060A97
:1037F3007A1F05636D117E0443B47E1F05631207B0
:10380300E350030237771242FCDA3B227CA77C1B8E
:10381300BE100050030238B3BE107F28030238B332
:10382300BEA00050030238B3BEA03F28030238B342
:1038330030023D0A3A7E240008120A597CB57E34D0
:10384300000160053E341478FB7C670A1A1E141EBF
:10385300141E143E143E143E143E143E143E143EF5
:10386300140A212D212E2400237E29704C76803DBD
:103873000A3A7E240008120A597CB57E440001608E
:10388300053E441478FB7CB964FF0A3A1E341E34A7
:103893001E343E343E343E343E343E343E343E34B5
:1038A3000A212D232E2400237E29705C7B7A297024
:1038B300227CAB7C3702394B7C2A023941300C3BEA
:1038C3000A337E240008120A597CB57E3400016055
:1038D300053E341478FB0A231E241E241E243E2492
:1038E3003E243E243E243E243E243E240A022D024E
:1038F3002E0400A37E09B04CB7803E0A337E240019
:1039030008120A597CB57E04000160053E04147850
:10391300FB7C716E70FF0A231E241E241E243E248A
:103923003E243E243E243E243E243E240A022D020D
:103933002E0400A37E09B05CB77A09B00B21BE2028
:103943008050030238C00B31BE304050030238BBF5
:1039530022CAF87EF07F0A3F2E3402277A71827AD8
:103963006183E00A3F2E3402287A71827A6183F000
:103973001BF0BEF00038DF30CC04740A80027432CE
:10398300900228F0C2001243866CFFD2017CBF0A6A
:103993003B2E3402287A71827A61837EEB607E70DB
:1039A3003F9C767C6B0B600A2B2E2402297A518272
:1039B3007A41837EEB407E503F9C547E4001122728
:1039C300DC0BF0BEF07F40C31242FC7E34003212A7
:1039D3004513DAF822CA797CF57CEB740212415A5A
:1039E3007AF305C27AE305C16D33E47D232E240BFC
:1039F300607A51827A4183F00B34BE34000D78EA49
:103A03006D33E47D232E240C6D7A51827A4183F049
:103A13000B34BE34000D78EA6D336D117D233E24E3
:103A23002E240A987A51827A41831BEA100B34BE02
:103A330034003278E56D336D117D233E242E240A44
:103A4300FC7A51827A41831BEA100B34BE34003274
:103A530040E57401DA7922CA3B7A5305B77A6305E4
:103A6300B67F307A7305B57AB305B4E4900D83F06D
:103A7300804A7EB305B47E7305B5900D837EEB60FB
:103A83000A267F032D127E0B607E5305B67E430507
:103A9300B7121CAF7EB305B424087AB305B47E73A2
:103AA30005B4BE7078280FE47AB305B47EB305B5C8
:103AB3000BB17AB305B5900D83E004F0900D83E06C
:103AC3000A3B2D377D267E1BB070A7DA3B22CA3B0B
:103AD3007A53052F7A63052E7F307A73052D7AB3D7
:103AE300052CE4900D7FF0804A7EB3052C7E730590
:103AF3002D900D7F7EEB600A267F032D127E0B60D7
:103B03007E53052E7E43052F1222CC7EB3052C2433
:103B1300087AB3052C7E73052CBE7078280FE47ADF
:103B2300B3052C7EB3052D0BB17AB3052D900D7F14
:103B3300E004F0900D7FE00A3B2D377D267E1BB01D
:103B430070A7DA3B22CA3B7CC57CE67CD77CFB7A38
:103B5300D305C4804A7CBF7E7305C41243AF7AF396
:103B630005C380247E6305C47E7080AC677E5305E5
:103B7300C30A252D3209B300237E70011200037E90
:103B8300B305C3047AB305C30A3E0A2F2D237E73FC
:103B930005C3BD3248CE7EB305C4047AB305C40A57
:103BA3003C0A2D2D237E7305C4BD3248A8DA3B227F
:103BB300BE3400004011BE340064500B1E341E346A
:103BC3001E342E340B6022BE3427104015BE34271A
:103BD30074500F9E3427101E341E341E342E340CA2
:103BE3006D22BE344E204011BE344E52500B9E34D3
:103BF3004E203E342E340A9822BE3475304011BE16
:103C0300347562500B9E3475303E342E340AFC22D8
:103C13009F1122CA797C047C967C177C8B6D110AD8
:103C2300357D235E240007780C7D531E541E541EDD
:103C3300547CAB800C7D531E541E541E540B547C79
:103C4300AB7C7180267C68801CA5B800040B1480B3
:103C5300020B147E50017EF080ACF10AF62DF719A9
:103C63005F00230B60BC6940E00B70BCA738D6DA59
:103C73007922CA3B7A6305BD7F307A7305BC7AB378
:103C830005BB1245F37EB305BB1244FC1245E37E2C
:103C9300B305BC1244FC1245E31245F37EB305BBE6
:103CA300041244FC1245E31200267A3BB00B747EE7
:103CB300B305BDBEB00168031244B57EB305BD14A0
:103CC3007AB305BD78E112446B124603DA3B227FD7
:103CD300617C5B7F707E7BB064FF7A7BB07E340057
:103CE300017CB560053E341478FB7E7B404C477AFB
:103CF3007B407E7BB064FF7A7BB07E7305317E149C
:103D030000017CB760053E141478FB7E6B605C6336
:103D13007CB760051E601478FB7CB560053E6014BB
:103D230078FB7E7B704C767A7B7022CA3B7CE57C89
:103D3300D67CF77CCBBCF538047401800274FF7A1F
:103D4300B305C8E48024A20E92017CBC7E5305C84F
:103D53007E4305C7AC542C5F7C757C6D7E4001129D
:103D630027DC1242FC7EB305C7047AB305C70A2FCA
:103D73000A3E9D321246137D237E7305C71A37BD53
:103D83003208C3DA3B22CA3B7D73D2B26D667E34FE
:103D9300000A12457FA2B2E4337AB305CA7E7305E3
:103DA300CABE70002808BD7628040B6480E07E3408
:103DB300000A12457FA2B2E4337AB305CA7E7305C3
:103DC300CABE70015008BD7628040B6480E07E24CF
:103DD30000327D368D327D32DA3B22CA3B7CF57C64
:103DE300E67CD77CCBA20D92017C577E4001122743
:103DF300DCA20D92017CBE7C7D7C6E7C5F7E4001EB
:103E03001227DCA20D92017CBE7C7F7C6C7C5F7EE2
:103E130040011227DCA20D92017CBC7C7F7C6C7C70
:103E23005D7E40011227DCDA3B22CA3B7D73D2B2AE
:103E33006D667E34000A12457FA2B2E4337AB3057D
:103E4300C97E7305C9BE70002808BD7628040B64BB
:103E530080E07E34000A12457FA2B2E4337AB305D0
:103E6300C97E7305C9BE70015008BD7628040B6472
:103E730080E0DA3B22CA2BC0D1C083C082A930AC18
:103E83002DA9C0ACE5AD7EA305B90A4A2E440C7A30
:103E93007A91827A8183F07CBA047AB305B9BEB091
:103EA300804005E47AB305B974027AB305B8A93141
:103EB300AC05A9C1ACC203D082D083D0D1DA2B32F6
:103EC300CA2BC0D1C083C082A930FD2DA9C0FDE596
:103ED300FE7EA305BF0A4A2E440CFA7A91827A81A8
:103EE30083F07CBA047AB305BFBEB0804005E47AA0
:103EF300B305BF74027AB305BEA931FD05A9C1FD9F
:103F0300C205D082D083D0D1DA2B327F707D23BE1D
:103F1300242710403BBE2427745035E47AB305317F
:103F23007D329E3427107D231E241E241E242E241E
:103F33000C6D7A51827A4183E00A1B6D007D535EDA
:103F43005400077E7BA00A3A6D22123CD2740122F0
:103F5300E4227584017E44041FE47A49B01B44784B
:103F6300F97EF805CC7E0400FF7E1446650B0A40FB
:103F73005D446822295000020A25693000032E0897
:103F830000050B44800A7E0BB07A1BB00B1C0B0C94
:103F93001B4478F280D7020AEFCA3B7A63052F7F6E
:103FA300307A73052E7AB3052D1245F37EB3052DB2
:103FB3001244FC1245E37EB3052E1244FC1245E382
:103FC3007E3BB01244FC0B741245E37EB3052F1401
:103FD3007AB3052F78EA124603DA3B22CA69CAF894
:103FE300A206E433B4013312465B7CFB1246567DD2
:103FF300637CBF1241CA4D33781DBEF00228021BF9
:10400300F17AD1827AC183E06006BEB305C2780734
:104013007D367CBF123569124644DAF8DA6922C26A
:1040230000124386124660600DE46C777E14513DA6
:104033007E0400FF800BE46C777E1451327E040013
:10404300FF7E60107E5001123AD1E47E70037E142D
:1040530051227E0400FF7E60106C55123AD1024259
:10406300FCCAB8CA1BC0D17E1F001C0B1C7A1F00E0
:104073001C7EB305B8600F147AB305B878087EB315
:1040830005B96002D2047EB305BE600F147AB3058E
:10409300BE78087EB305BF6002D206D0D1DA1BDA40
:1040A300B83243BA8075EA0075E9007594007593D8
:1040B300007592007591007596FF75950075B200B5
:1040C30075B10075B40075B30075CA0075C900D227
:1040D300AF1243D6E4124193C2A2C287124623D23F
:1040E3008722CA796CFF7CBF24B06C77120003E48B
:1040F3006C7712000374106C771200036CEE300BB4
:104103000474FF8001E47E70011200030BE0BEE043
:104113008078EB0BF0BEF00840CCDA79227C7BA5EB
:10412300BF02337E18FFAA12449D7E34FDB47E2461
:10413300007E7E1BB044017A1BB0E59A543F444095
:10414300F59AA9D0AFA9D49AA9D0BAC20AE47AB38E
:1041530005267AB30525227C7BA5BF020C7E18FFBA
:10416300AA1244CD75FD108015A9C7DD75FD5075E4
:10417300D2FF75D3AAA9C6DDA9D5DDA9D7DDA9D4F8
:10418300AFA9C2BAC205E47AB305C07AB305BF22A8
:10419300C28EA9C08EA9C689A9D68E5389CF758D23
:1041A300FF758BAAC2ABD28EE598543F4440F59875
:1041B300D2ACD29C53A23FE5A2F5A2C209E47AB3E2
:1041C30004A47AB304A3227CAB7D237E34FFFF7A5D
:1041D30051827A4183E00A1B6D316C337D035E04A7
:1041E300000168081E346E34A00180021E340B30B7
:1041F300A5BB08E80B247CBA147CAB78D222CA2B6B
:10420300C0D1A9309A1FA9C09A7EA19B7EB3052570
:104213000A4B19A404A5047AB30525BEB080400552
:10422300E47AB30525A9319A05A9C19AC20AD0D166
:10423300DA2B327C7BBE700128026C77A9C3DD7553
:10424300AC5075D4FF75D5AAA9C2DDA9D1DDA9D318
:10425300DDA9D3AF7CB713A991BAC203E47AB3053E
:10426300BA7AB305B9227F712009FDD2097ED40041
:104273000A7F177D1D120A9C7F202E280030F59996
:104283007F177D1D120A9C7F71BE78000078D920AC
:1042930009FDD20975990A22CA2BC0D130981EC2D2
:1042A300987EA1997EB304A30A4B19A40423047A2C
:1042B300B304A3BEB0804005E47AB304A3309904E9
:1042C300C299C209D0D1DA2B327F207D13BE147577
:1042D300304023BE147562501D0B2A207D319E345D
:1042E30075303E342E340AFC7A71827A61831BEA7C
:1042F300207E340001226D3322CA796CFFE47C7F77
:104303001243AF6CEE7E7080AC7F0A2E2D3209B360
:1043130000237E70011200030BE0BEE08078E60B01
:10432300F0BEF00840D7DA79227F012009FDD209D7
:104333007CB0F5992009FDD2097CB1F5992009FDDE
:10434300D2097CB2F5992009FDD2097CB3F59920F5
:1043530009FDD20975990A22CAF8D2B27E34000A3D
:1043630012457FA2B2E4337CFBBEF00038EE7E340C
:10437300000A12457FA2B2E4337CFBBEF00140EE9B
:10438300DAF8226C776C663000057E50FF80026C91
:10439300557E3080AC370A062D10195100230B606F
:1043A300A5BE80E30B70BE700840DA22CAF87CFB1E
:1043B3007CB724B06C771200037CBF54F0C4540F55
:1043C30044106C771200037CBF540F6C7712000308
:1043D300DAF8229F117A1F001C75DD2074277E34C2
:1043E300FEA47E24007E7A1BB075D31875D2FC43DD
:1043F300AF4043DD8022CAF87CFB74816C771200E6
:10440300037CBF6C7712000374DB6C7712000374B8
:10441300206C77120003DAF822A9C5BAA9D4BA74BA
:10442300E07E34FE807E24007E7A1BB0E47E34FE80
:10443300827A1BB0227C977C8B7E18000180070A4E
:10444300186D00120A8B7CA91B904CAA78F1227C70
:10445300AB6C77800E2003FDD2037E0BB0F5AD0B62
:10446300140B70BCA738EE2274017E34FE827E24C6
:10447300007E7A1BB074057E34FE817A1BB0024441
:10448300E57CAB6C77800E2005FDD2057E0BB0F585
:10449300FE0B140B70BCA738EE22A9C48EA9C38EE1
:1044A300A9D28E7CB6F5D67F21F5D7A9C2AFA9D400
:1044B3008E22E47E34FE827E24007E7A1BB0740555
:1044C3007E34FE817A1BB00244E5A9C48EA9C38E53
:1044D300A9D28E7CB6F5D67F21F5D7A9C2AFA9D4D0
:1044E3008E227E34FE827E24007E7E1BB030E6F276
:1044F3007E1BB054BF7A1BB0227E34FE867E24001E
:104503007E7A1BB074027E34FE817A1BB00244E5CE
:104513007D237E341A0A7D131B147D3178F87D12B6
:104523001B147D2178EC225389F0438901758AFBA2
:10453300758CF2D28C308DFDC28DC28C227D4320CE
:1045430009FDD2090A58F5992009FDD2097CB9F56C
:104553009922748D6C7712000374146C7712000324
:1045630074AF6C77020003748D6C771200037410C0
:104573006C7712000374AE6C77020003CA3B7D7341
:104583006D66800512452A0B64BD7638F7DA3B2247
:10459300800C2009FDD2097E0BB0F5990B147E0B1C
:1045A300B070EF22800C200AFD7E0BB0F59BD20A7F
:1045B3000B147E0BB070EF22800C2003FDD2037E20
:1045C3000BB0F5AD0B147E0BB070EF22800C7E0B9D
:1045D300B0F5FED2052005FD0B147E0BB070EF2263
:1045E30074037E34FE817E24007E7A1BB00244E590
:1045F30074017E34FE817E24007E7A1BB00244E582
:1046030074067E34FE817E24007E7A1BB00244E56C
:104613007D23BE24000048037D32226D339D322268
:1046230000007E34967E7E2400981B1C78FC22209A
:1046330009FDD2097CB7F59922C204E47AB305B91E
:1046430022C206E47AB305BF227E340C7A227EB3FB
:1046530005B9227E340CFA227EB305BF227EB30550
:10466300C122022801000000000000000000000039
:104673002F000000000700070000147F147F1400C0
:10468300242A7F2A12006264081323003649552224
:104693005000000503000000001C224100000041FF
:1046A300221C000014083E08140008083E080800F5
:1046B3000000A0600000080808080800006060000F
:1046C30000002010080402003E5149453E0000420C
:1046D3007F4000004261514946002141454B310072
:1046E3001814127F10002745454539003C4A4949B3
:1046F300300001710905030036494949360006496E
:1047030049291E000036360000000056360000001E
:10471300081422410000141414141400004122143C
:104723000800020151090600324959513E007C122A
:1047330011127C007F49494936003E414141220024
:104743007F4141221C007F49494941007F090909F2
:1047530001003E4149497A007F0808087F00004173
:104763007F4100002040413F01007F0814224100A7
:104773007F40404040007F020C027F007F0408100E
:104783007F003E4141413E007F09090906003E4149
:1047930051215E007F0919294600464949493100E4
:1047A30001017F0101003F4040403F001F204020A6
:1047B3001F003F4038403F0063140814630007089C
:1047C30070080700615149454300007F41410000E3
:1047D300552A552A55000041417F00000402010279
:1047E3000400404040404000000102040000205407
:1047F300545478007F4844443800384444442000EB
:10480300384444487F00385454541800087E090142
:10481300020018A4A4A47C007F08040478000044C8
:104823007D4000004080847D00007F10284400000C
:1048330000417F4000007C04180478007C080404D5
:104843007800384444443800FC24242418001824F5
:104853002418FC007C080404080048545454200025
:10486300043F444020003C4040207C001C2040206A
:104873001C003C4030403C004428102844001CA04D
:10488300A0A07C004464544C441414141414140263
:10489300000102A8100C0424242425262424242403
:1048A30004140C00000000000000000000000000E1
:1048B3000000000000818141310F0101017F8181EE
:1048C30081F1000000000000000000000000000073
:1048D3000000000000042424252624FC242625248B
:1048E300240400000000000000000000000000009D
:1048F30000000000818989494929190F192949496B
:104903008989810000000000000000000000000011
:104913000000000000FC0000FF004020D81710102A
:10492300F010100000000000000000000000000074
:1049330000000000000F0402FF008040211608164B
:104943002140800000000000000000000000000083
:104953000000000000040404040404FC0404040430
:10496300040400000000000000000000000000003C
:1049730000000000202020202020203F2020202095
:1049830020202000000000000000000000000000C4
:1049930000000000000000FE000000000000000016
:1049A3000000000000000000000000000000000004
:1049B30000000000000000330000000000000000C1
:1049C30000000000000000000000000000000000E4
:1049D30000000000FC2424FC0020E42424FE222305
:1049E300E2200000000000000000000000000000C2
:1049F300000000003F11113F00494F49497F4949D9
:104A03004F4901000000000000000000000000000A
:104A130000000000201809CA4848494A48484CCABF
:104A2300092818000000000000000000000000003A
:104A3300000000000080804F402018077880808F9E
:104A430080E0000000000000000000000000000003
:104A530000000000000000FE000000000000000055
:104A63000000000000000000000000000000000043
:104A73000000000000000033000000000000000000
:104A83000000000000000000000000000000000023
:104A93000000000005F00104A80000000000000071
:104AA300000000000000000000000000F80000000B
:104AB30000000000333000000000100C06100C064C
:104AC30000000000000000000040C07840C07840B3
:104AD30000043F04043F040400007088FC08300015
:104AE30000001820FF211E0000F008F000E018006D
:104AF3000000211C031E211E0000F0088870000026
:104B0300001E2123241927211010160E0000000077
:104B1300000000000000000000000000E018040294
:104B230000000000071820400000020418E0000005
:104B3300000040201807000000404080F080404003
:104B4300000202010F01020200000000F000000059
:104B5300000101011F01010100000000000000002D
:104B63000080B070000000000000000000000000A2
:104B7300000001010101010101000000000000002B
:104B830000003030000000000000000000806018CA
:104B930004006018060100000000E010080810E09F
:104BA30000000F102020100F00001010F80000006C
:104BB300000020203F2020000000700808088870B3
:104BC3000000302824222130000030088888483033
:104BD300000018202020110E000000C02010F80053
:104BE3000000070424243F240000F80888880808EC
:104BF300000019212020110E0000E0108888180001
:104C030000000F112020110E0000380808C83808D2
:104C1300000000003F000000000070880808887052
:104C230000001C222121221C0000E010080810E0D3
:104C3300000000312222110F00000000C0C000005C
:104C43000000000030300000000000008000000081
:104C53000000008060000000000000804020100879
:104C63000000010204081020004040404040404042
:104C7300000404040404040400000810204080001D
:104C8300000020100804020100007048080808F022
:104C9300000000003036010000C030C828E810E0F2
:104CA300000718272423140B000000C038E000007D
:104CB30000203C23020227382008F88888887000E7
:104CC30000203F202020110E00C0300808080838BB
:104CD30000071820202010080008F808080810E032
:104CE30000203F202020100F0008F88888E80810D3
:104CF30000203F20202320180008F88888E80810A7
:104D030000203F200003000000C0300808083800DE
:104D13000007182020221E020008F808000008F8E7
:104D230008203F210101213F20000808F80808005E
:104D3300000020203F2020000000000808F8080899
:104D430000C08080807F00000008F888C028180811
:104D530000203F20012638200008F808000000004A
:104D630000203F20202020300008F8F800F8F80841
:104D730000203F003F003F200008F830C00008F843
:104D830008203F200007183F00E01008080810E043
:104D9300000F10202020100F0008F808080808F062
:104DA30000203F210101010000E01008080810E085
:104DB300000F18242438504F0008F888888888701A
:104DC30000203F2000030C302000708808080838BA
:104DD300000038202121221C00180808F8080818B0
:104DE300000000203F2000000008F808000008F839
:104DF30008001F202020201F000878880000C838E2
:104E030008000007380E010000F80800F80008F851
:104E130000033C0700073C030008186880806818FB
:104E23000820302C03032C30200838C800C8380869
:104E3300000000203F2000000010080808C83808C0
:104E4300002038262120201800000000FE02020264
:104E5300000000007F40404000000C30C000000014
:104E630000000000010638C00000020202FE00003C
:104E730000004040407F00000000000402020204E2
:104E8300000000000000000000000000000000001F
:104E93000080808080808080800002020400000007
:104EA30000000000000000000000008080808000FF
:104EB300000019242222223F2008F80080800000ED
:104EC30000003F112020110E0000000080808000B0
:104ED30000000E112020201100000000808088F8BF
:104EE30000000E112020103F2000008080808000F1
:104EF30000001F222222221300008080F08888886D
:104F0300180020203F202000000000808080808047
:104F130000006B94949493600008F80080808000F4
:104F230000203F210000203F2000809898000000CF
:104F3300000020203F2020000000000080989800FF
:104F43000000C08080807F000008F800008080801F
:104F530000203F24022D302000000808F800000044
:104F6300000020203F2020000080808080808080FF
:104F730000203F20003F20003F8080008080800091
:104F830000203F210000203F20000080808080001F
:104F930000001F202020201F008080008080000050
:104FA3000080FFA12020110E00000000808080807F
:104FB30000000E112020A0FF808080800080808070
:104FC3000020203F2120000100000080808080809D
:104FD300000033242424241900008080E080800012
:104FE300000000001F20200000808000000080805F
:104FF30000001F202020103F208080800000808040
:105003008000010E3008060100808000800080804F
:10501300800F300C030C300F0000808000808080F4
:10502300000020312E0E312000808080000080801F
:105033008080818E701806010000808080808080CF
:10504300000021302C2221300000000000807C026F
:105053000200000000003F404000000000FF00008D
:105063000000000000FF0000000002027C8000003E
:10507300000040403F00000000000601010202045E
:105083000400000000000000000000446573743A4F
:1050930000436F6E6E656374696E672E2E2E004D2E
:1050A30061737465720055415254313A20456E74F0
:1050B3006572206D6F64627573206D6173746572C0
:1050C300206D6F6465210D0A00416464723A0043E8
:1050D3006E743A004C69676874204F6666004C69C9
:1050E300676874204F6E00496E697469616C697AF0
:1050F300696E672E2E2E00536C6176650055415202
:1051030054313A20456E746572206D6F6462757315
:1051130020736C617665206D6F6465210D0A005202
:1051230065636F6E6E656374696E672E2E2E005312
:105133006C617665206D6F6465004D617374657293
:06514300206D6F646500A1
:00000001FF
